{
  "_format": "hh3-artifact-1",
  "contractName": "EVoting",
  "sourceName": "contracts/EVoting.sol",
  "abi": [
    {
      "inputs": [
        {
          "internalType": "address",
          "name": "_voterVerifier",
          "type": "address"
        },
        {
          "internalType": "address",
          "name": "_voteVerifier",
          "type": "address"
        },
        {
          "internalType": "address",
          "name": "_humanityVerifier",
          "type": "address"
        },
        {
          "internalType": "address",
          "name": "_authorityVerifier",
          "type": "address"
        }
      ],
      "stateMutability": "nonpayable",
      "type": "constructor"
    },
    {
      "inputs": [
        {
          "internalType": "address",
          "name": "owner",
          "type": "address"
        }
      ],
      "name": "OwnableInvalidOwner",
      "type": "error"
    },
    {
      "inputs": [
        {
          "internalType": "address",
          "name": "account",
          "type": "address"
        }
      ],
      "name": "OwnableUnauthorizedAccount",
      "type": "error"
    },
    {
      "anonymous": false,
      "inputs": [
        {
          "indexed": true,
          "internalType": "address",
          "name": "authority",
          "type": "address"
        }
      ],
      "name": "AuthorityAdded",
      "type": "event"
    },
    {
      "anonymous": false,
      "inputs": [
        {
          "indexed": true,
          "internalType": "uint256",
          "name": "electionId",
          "type": "uint256"
        },
        {
          "indexed": false,
          "internalType": "string",
          "name": "title",
          "type": "string"
        }
      ],
      "name": "ElectionCreated",
      "type": "event"
    },
    {
      "anonymous": false,
      "inputs": [
        {
          "indexed": true,
          "internalType": "uint256",
          "name": "electionId",
          "type": "uint256"
        }
      ],
      "name": "ElectionEnded",
      "type": "event"
    },
    {
      "anonymous": false,
      "inputs": [
        {
          "indexed": true,
          "internalType": "uint256",
          "name": "electionId",
          "type": "uint256"
        }
      ],
      "name": "ElectionStarted",
      "type": "event"
    },
    {
      "anonymous": false,
      "inputs": [
        {
          "indexed": true,
          "internalType": "address",
          "name": "voter",
          "type": "address"
        }
      ],
      "name": "HumanityVerified",
      "type": "event"
    },
    {
      "anonymous": false,
      "inputs": [
        {
          "indexed": true,
          "internalType": "address",
          "name": "previousOwner",
          "type": "address"
        },
        {
          "indexed": true,
          "internalType": "address",
          "name": "newOwner",
          "type": "address"
        }
      ],
      "name": "OwnershipTransferred",
      "type": "event"
    },
    {
      "anonymous": false,
      "inputs": [
        {
          "indexed": true,
          "internalType": "uint256",
          "name": "electionId",
          "type": "uint256"
        },
        {
          "indexed": true,
          "internalType": "uint256",
          "name": "candidateId",
          "type": "uint256"
        }
      ],
      "name": "VoteCasted",
      "type": "event"
    },
    {
      "inputs": [
        {
          "internalType": "address",
          "name": "_authority",
          "type": "address"
        }
      ],
      "name": "addAuthority",
      "outputs": [],
      "stateMutability": "nonpayable",
      "type": "function"
    },
    {
      "inputs": [
        {
          "internalType": "uint256",
          "name": "_electionId",
          "type": "uint256"
        },
        {
          "internalType": "string",
          "name": "_name",
          "type": "string"
        },
        {
          "internalType": "string",
          "name": "_ipfsHash",
          "type": "string"
        }
      ],
      "name": "addCandidate",
      "outputs": [],
      "stateMutability": "nonpayable",
      "type": "function"
    },
    {
      "inputs": [
        {
          "internalType": "address",
          "name": "",
          "type": "address"
        }
      ],
      "name": "authorities",
      "outputs": [
        {
          "internalType": "bool",
          "name": "",
          "type": "bool"
        }
      ],
      "stateMutability": "view",
      "type": "function"
    },
    {
      "inputs": [],
      "name": "authorityVerifier",
      "outputs": [
        {
          "internalType": "contract IVerifier",
          "name": "",
          "type": "address"
        }
      ],
      "stateMutability": "view",
      "type": "function"
    },
    {
      "inputs": [
        {
          "internalType": "uint256",
          "name": "",
          "type": "uint256"
        },
        {
          "internalType": "uint256",
          "name": "",
          "type": "uint256"
        }
      ],
      "name": "candidates",
      "outputs": [
        {
          "internalType": "uint256",
          "name": "id",
          "type": "uint256"
        },
        {
          "internalType": "string",
          "name": "name",
          "type": "string"
        },
        {
          "internalType": "string",
          "name": "ipfsHash",
          "type": "string"
        },
        {
          "internalType": "uint256",
          "name": "voteCount",
          "type": "uint256"
        }
      ],
      "stateMutability": "view",
      "type": "function"
    },
    {
      "inputs": [
        {
          "internalType": "uint256",
          "name": "_electionId",
          "type": "uint256"
        },
        {
          "internalType": "uint256",
          "name": "_candidateId",
          "type": "uint256"
        },
        {
          "internalType": "bytes",
          "name": "_nullifier",
          "type": "bytes"
        },
        {
          "internalType": "bytes",
          "name": "_proof",
          "type": "bytes"
        }
      ],
      "name": "castVote",
      "outputs": [],
      "stateMutability": "nonpayable",
      "type": "function"
    },
    {
      "inputs": [
        {
          "internalType": "string",
          "name": "_title",
          "type": "string"
        },
        {
          "internalType": "string",
          "name": "_ipfsHash",
          "type": "string"
        },
        {
          "internalType": "uint256",
          "name": "_startTime",
          "type": "uint256"
        },
        {
          "internalType": "uint256",
          "name": "_endTime",
          "type": "uint256"
        },
        {
          "internalType": "uint256",
          "name": "_candidateCount",
          "type": "uint256"
        },
        {
          "internalType": "bool",
          "name": "_requireHumanity",
          "type": "bool"
        }
      ],
      "name": "createElection",
      "outputs": [
        {
          "internalType": "uint256",
          "name": "",
          "type": "uint256"
        }
      ],
      "stateMutability": "nonpayable",
      "type": "function"
    },
    {
      "inputs": [
        {
          "internalType": "uint256",
          "name": "",
          "type": "uint256"
        }
      ],
      "name": "elections",
      "outputs": [
        {
          "internalType": "uint256",
          "name": "id",
          "type": "uint256"
        },
        {
          "internalType": "string",
          "name": "title",
          "type": "string"
        },
        {
          "internalType": "string",
          "name": "ipfsHash",
          "type": "string"
        },
        {
          "internalType": "uint256",
          "name": "startTime",
          "type": "uint256"
        },
        {
          "internalType": "uint256",
          "name": "endTime",
          "type": "uint256"
        },
        {
          "internalType": "enum EVoting.ElectionState",
          "name": "state",
          "type": "uint8"
        },
        {
          "internalType": "uint256",
          "name": "candidateCount",
          "type": "uint256"
        },
        {
          "internalType": "bool",
          "name": "humanityCheckRequired",
          "type": "bool"
        }
      ],
      "stateMutability": "view",
      "type": "function"
    },
    {
      "inputs": [
        {
          "internalType": "uint256",
          "name": "_electionId",
          "type": "uint256"
        }
      ],
      "name": "endElection",
      "outputs": [],
      "stateMutability": "nonpayable",
      "type": "function"
    },
    {
      "inputs": [
        {
          "internalType": "uint256",
          "name": "_electionId",
          "type": "uint256"
        },
        {
          "internalType": "uint256",
          "name": "_candidateId",
          "type": "uint256"
        }
      ],
      "name": "getCandidateVotes",
      "outputs": [
        {
          "internalType": "uint256",
          "name": "",
          "type": "uint256"
        }
      ],
      "stateMutability": "view",
      "type": "function"
    },
    {
      "inputs": [
        {
          "internalType": "uint256",
          "name": "_electionId",
          "type": "uint256"
        }
      ],
      "name": "getElection",
      "outputs": [
        {
          "components": [
            {
              "internalType": "uint256",
              "name": "id",
              "type": "uint256"
            },
            {
              "internalType": "string",
              "name": "title",
              "type": "string"
            },
            {
              "internalType": "string",
              "name": "ipfsHash",
              "type": "string"
            },
            {
              "internalType": "uint256",
              "name": "startTime",
              "type": "uint256"
            },
            {
              "internalType": "uint256",
              "name": "endTime",
              "type": "uint256"
            },
            {
              "internalType": "enum EVoting.ElectionState",
              "name": "state",
              "type": "uint8"
            },
            {
              "internalType": "address[]",
              "name": "authorities",
              "type": "address[]"
            },
            {
              "internalType": "uint256",
              "name": "candidateCount",
              "type": "uint256"
            },
            {
              "internalType": "bool",
              "name": "humanityCheckRequired",
              "type": "bool"
            }
          ],
          "internalType": "struct EVoting.Election",
          "name": "",
          "type": "tuple"
        }
      ],
      "stateMutability": "view",
      "type": "function"
    },
    {
      "inputs": [
        {
          "internalType": "uint256",
          "name": "_electionId",
          "type": "uint256"
        }
      ],
      "name": "getTotalVotes",
      "outputs": [
        {
          "internalType": "uint256",
          "name": "",
          "type": "uint256"
        }
      ],
      "stateMutability": "view",
      "type": "function"
    },
    {
      "inputs": [
        {
          "internalType": "address",
          "name": "",
          "type": "address"
        }
      ],
      "name": "humanVerified",
      "outputs": [
        {
          "internalType": "bool",
          "name": "",
          "type": "bool"
        }
      ],
      "stateMutability": "view",
      "type": "function"
    },
    {
      "inputs": [],
      "name": "humanityVerifier",
      "outputs": [
        {
          "internalType": "contract IVerifier",
          "name": "",
          "type": "address"
        }
      ],
      "stateMutability": "view",
      "type": "function"
    },
    {
      "inputs": [],
      "name": "owner",
      "outputs": [
        {
          "internalType": "address",
          "name": "",
          "type": "address"
        }
      ],
      "stateMutability": "view",
      "type": "function"
    },
    {
      "inputs": [
        {
          "internalType": "address",
          "name": "_authority",
          "type": "address"
        }
      ],
      "name": "removeAuthority",
      "outputs": [],
      "stateMutability": "nonpayable",
      "type": "function"
    },
    {
      "inputs": [],
      "name": "renounceOwnership",
      "outputs": [],
      "stateMutability": "nonpayable",
      "type": "function"
    },
    {
      "inputs": [
        {
          "internalType": "uint256",
          "name": "_electionId",
          "type": "uint256"
        }
      ],
      "name": "startElection",
      "outputs": [],
      "stateMutability": "nonpayable",
      "type": "function"
    },
    {
      "inputs": [
        {
          "internalType": "address",
          "name": "newOwner",
          "type": "address"
        }
      ],
      "name": "transferOwnership",
      "outputs": [],
      "stateMutability": "nonpayable",
      "type": "function"
    },
    {
      "inputs": [
        {
          "internalType": "bytes",
          "name": "",
          "type": "bytes"
        }
      ],
      "name": "usedNullifiers",
      "outputs": [
        {
          "internalType": "bool",
          "name": "",
          "type": "bool"
        }
      ],
      "stateMutability": "view",
      "type": "function"
    },
    {
      "inputs": [
        {
          "internalType": "bytes",
          "name": "_proof",
          "type": "bytes"
        },
        {
          "internalType": "uint256[1]",
          "name": "_publicSignals",
          "type": "uint256[1]"
        }
      ],
      "name": "verifyHumanity",
      "outputs": [],
      "stateMutability": "nonpayable",
      "type": "function"
    },
    {
      "inputs": [],
      "name": "voteVerifier",
      "outputs": [
        {
          "internalType": "contract IVerifier",
          "name": "",
          "type": "address"
        }
      ],
      "stateMutability": "view",
      "type": "function"
    },
    {
      "inputs": [],
      "name": "voterVerifier",
      "outputs": [
        {
          "internalType": "contract IVerifier",
          "name": "",
          "type": "address"
        }
      ],
      "stateMutability": "view",
      "type": "function"
    },
    {
      "inputs": [
        {
          "internalType": "uint256",
          "name": "",
          "type": "uint256"
        },
        {
          "internalType": "uint256",
          "name": "",
          "type": "uint256"
        }
      ],
      "name": "votes",
      "outputs": [
        {
          "internalType": "bytes",
          "name": "nullifier",
          "type": "bytes"
        },
        {
          "internalType": "uint256",
          "name": "candidateId",
          "type": "uint256"
        },
        {
          "internalType": "bytes",
          "name": "proof",
          "type": "bytes"
        },
        {
          "internalType": "uint256",
          "name": "timestamp",
          "type": "uint256"
        }
      ],
      "stateMutability": "view",
      "type": "function"
    }
  ],
  "bytecode": "0x608060405234801561000f575f5ffd5b50604051611e7d380380611e7d83398101604081905261002e91610133565b338061005357604051631e4fbdf760e01b81525f600482015260240160405180910390fd5b61005c816100c9565b50600880546001600160a01b039586166001600160a01b0319918216179091556009805494861694821694909417909355600a805492851692841692909217909155600b8054919093169116179055335f908152600560205260409020805460ff19166001179055610184565b5f80546001600160a01b038381166001600160a01b0319831681178455604051919092169283917f8be0079c531659141344cd1fd0a4f28419497f9722a3daafe3b4186f6b6457e09190a35050565b80516001600160a01b038116811461012e575f5ffd5b919050565b5f5f5f5f60808587031215610146575f5ffd5b61014f85610118565b935061015d60208601610118565b925061016b60408601610118565b915061017960608601610118565b905092959194509250565b611cec806101915f395ff3fe608060405234801561000f575f5ffd5b5060043610610153575f3560e01c806391223d69116100bf578063d544e01011610079578063d544e0101461037c578063d64350881461038f578063e6c62efc146103a2578063eaeea7d2146103b5578063eb24da7d146103c8578063f2fde38b146103db575f5ffd5b806391223d69146102c357806399d74c71146102e55780639c98bcbb146102f85780639d7107771461030b578063ae005f0f1461032b578063c6e36a3214610359575f5ffd5b80635e6fef01116101105780635e6fef011461023b5780636d32dc4b14610262578063715018a6146102755780637de142421461027d578063898921ed146102a05780638da5cb5b146102b3575f5ffd5b80630988df7514610157578063112d26a91461018e57806326defa73146101c95780632ce35e11146101de5780633824795e146101fd5780635277269814610228575b5f5ffd5b6101796101653660046113ba565b60066020525f908152604090205460ff1681565b60405190151581526020015b60405180910390f35b6101bb61019c3660046113e7565b5f91825260026020908152604080842092845291905290206003015490565b604051908152602001610185565b6101dc6101d73660046113ba565b6103ee565b005b6101bb6101ec366004611407565b5f9081526003602052604090205490565b600854610210906001600160a01b031681565b6040516001600160a01b039091168152602001610185565b600b54610210906001600160a01b031681565b61024e610249366004611407565b610441565b604051610185989796959493929190611480565b6101dc610270366004611407565b610593565b6101dc610674565b61029061028b3660046113e7565b610687565b60405161018594939291906114e3565b6101dc6102ae3660046115d6565b6107c6565b5f546001600160a01b0316610210565b6101796102d13660046113ba565b60056020525f908152604090205460ff1681565b600954610210906001600160a01b031681565b6101dc610306366004611407565b6108e3565b61031e610319366004611407565b6109b7565b60405161018591906116a3565b610179610339366004611757565b805160208183018101805160048252928201919093012091525460ff1681565b61036c6103673660046113e7565b610bc7565b6040516101859493929190611791565b6101dc61038a3660046113ba565b610c92565b6101dc61039d3660046117bb565b610cba565b6101dc6103b0366004611832565b61104d565b6101bb6103c33660046118ac565b611157565b600a54610210906001600160a01b031681565b6101dc6103e93660046113ba565b6112ab565b6103f66112e8565b6001600160a01b0381165f81815260056020526040808220805460ff19166001179055517f550a8ae64ec9d6640b6f168a26d3e6364b90defe8110c92135aa775b279e54ea9190a250565b600160208190525f9182526040909120805491810180546104619061193f565b80601f016020809104026020016040519081016040528092919081815260200182805461048d9061193f565b80156104d85780601f106104af576101008083540402835291602001916104d8565b820191905f5260205f20905b8154815290600101906020018083116104bb57829003601f168201915b5050505050908060020180546104ed9061193f565b80601f01602080910402602001604051908101604052809291908181526020018280546105199061193f565b80156105645780601f1061053b57610100808354040283529160200191610564565b820191905f5260205f20905b81548152906001019060200180831161054757829003601f168201915b50505060038401546004850154600586015460078701546008909701549596929591945060ff90811693501688565b335f9081526005602052604090205460ff166105ca5760405162461bcd60e51b81526004016105c190611977565b60405180910390fd5b5f8181526001602052604081206005015460ff1660038111156105ef576105ef61144c565b1461062c5760405162461bcd60e51b815260206004820152600d60248201526c496e76616c696420737461746560981b60448201526064016105c1565b5f818152600160208190526040808320600501805460ff19169092179091555182917f159eee87222a0489c529f2153c26ad65d718f2cc33ebaa8d399d1dd5b39facaa91a250565b61067c6112e8565b6106855f611314565b565b600260209081525f9283526040808420909152908252902080546001820180549192916106b39061193f565b80601f01602080910402602001604051908101604052809291908181526020018280546106df9061193f565b801561072a5780601f106107015761010080835404028352916020019161072a565b820191905f5260205f20905b81548152906001019060200180831161070d57829003601f168201915b50505050509080600201805461073f9061193f565b80601f016020809104026020016040519081016040528092919081815260200182805461076b9061193f565b80156107b65780601f1061078d576101008083540402835291602001916107b6565b820191905f5260205f20905b81548152906001019060200180831161079957829003601f168201915b5050505050908060030154905084565b5f5f5f848060200190518101906107dd91906119f0565b600a546040516343753b4d60e01b815293965091945092506001600160a01b0316906343753b4d90610819908690869086908a90600401611aa2565b602060405180830381865afa158015610834573d5f5f3e3d5ffd5b505050506040513d601f19601f820116820180604052508101906108589190611b25565b61089d5760405162461bcd60e51b815260206004820152601660248201527524b73b30b634b210343ab6b0b734ba3c90383937b7b360511b60448201526064016105c1565b335f81815260066020526040808220805460ff19166001179055517f27f4fbd341e117ea7858d9523598450be843076f15d1e8f9cf0ca969cef8b17e9190a25050505050565b335f9081526005602052604090205460ff166109115760405162461bcd60e51b81526004016105c190611977565b60015f8281526001602052604090206005015460ff1660038111156109385761093861144c565b146109725760405162461bcd60e51b815260206004820152600a6024820152694e6f742061637469766560b01b60448201526064016105c1565b5f81815260016020526040808220600501805460ff191660021790555182917f562cd572b2ba3b666cd989fc4ca98419ec81e75f04528df9d9d76fdb7807ee7191a250565b6109bf611363565b5f8281526001602081815260409283902083516101208101909452805484529182018054918401916109f09061193f565b80601f0160208091040260200160405190810160405280929190818152602001828054610a1c9061193f565b8015610a675780601f10610a3e57610100808354040283529160200191610a67565b820191905f5260205f20905b815481529060010190602001808311610a4a57829003601f168201915b50505050508152602001600282018054610a809061193f565b80601f0160208091040260200160405190810160405280929190818152602001828054610aac9061193f565b8015610af75780601f10610ace57610100808354040283529160200191610af7565b820191905f5260205f20905b815481529060010190602001808311610ada57829003601f168201915b5050509183525050600382810154602083015260048301546040830152600583015460609092019160ff1690811115610b3257610b3261144c565b6003811115610b4357610b4361144c565b815260200160068201805480602002602001604051908101604052809291908181526020018280548015610b9e57602002820191905f5260205f20905b81546001600160a01b03168152600190910190602001808311610b80575b50505091835250506007820154602082015260089091015460ff16151560409091015292915050565b6003602052815f5260405f208181548110610be0575f80fd5b905f5260205f2090600402015f9150915050805f018054610c009061193f565b80601f0160208091040260200160405190810160405280929190818152602001828054610c2c9061193f565b8015610c775780601f10610c4e57610100808354040283529160200191610c77565b820191905f5260205f20905b815481529060010190602001808311610c5a57829003601f168201915b50505050509080600101549080600201805461073f9061193f565b610c9a6112e8565b6001600160a01b03165f908152600560205260409020805460ff19169055565b8360015f8281526001602052604090206005015460ff166003811115610ce257610ce261144c565b14610d255760405162461bcd60e51b8152602060048201526013602482015272456c656374696f6e206e6f742061637469766560681b60448201526064016105c1565b5f85815260016020526040902060080154859060ff1615610d9e57335f9081526006602052604090205460ff16610d9e5760405162461bcd60e51b815260206004820152601760248201527f48756d616e69747920636865636b20726571756972656400000000000000000060448201526064016105c1565b5f868152600160205260409020600701548510610df15760405162461bcd60e51b8152602060048201526011602482015270496e76616c69642063616e64696461746560781b60448201526064016105c1565b600484604051610e019190611b40565b9081526040519081900360200190205460ff1615610e555760405162461bcd60e51b8152602060048201526011602482015270159bdd1948185b1c9958591e4818d85cdd607a1b60448201526064016105c1565b5f5f5f85806020019051810190610e6c91906119f0565b9250925092505f87610e7d90611b56565b6040805160208101825282815260095491516343753b4d60e01b8152929350916001600160a01b03909116906343753b4d90610ec3908890889088908790600401611aa2565b602060405180830381865afa158015610ede573d5f5f3e3d5ffd5b505050506040513d601f19601f82011682018060405250810190610f029190611b25565b610f3e5760405162461bcd60e51b815260206004820152600d60248201526c24b73b30b634b210383937b7b360991b60448201526064016105c1565b600160048a604051610f509190611b40565b9081526040805160209281900383018120805460ff1916941515949094179093555f8e8152600383528181206080850183528d85528385018f90529184018c90524260608501528154600181018355918152919091208251600490920201908190610fbb9082611bc5565b506020820151600182015560408201516002820190610fda9082611bc5565b50606091909101516003918201555f8c81526002602090815260408083208e8452909152812090910180549161100f83611c80565b90915550506040518a908c907f5d4760119c8e8650149aac097d38c70515dfce015031561ad115606533e479be905f90a35050505050505050505050565b335f9081526005602052604090205460ff1661107b5760405162461bcd60e51b81526004016105c190611977565b5f8381526001602052604081206005015460ff1660038111156110a0576110a061144c565b146110e45760405162461bcd60e51b8152602060048201526014602482015273456c656374696f6e206e6f742070656e64696e6760601b60448201526064016105c1565b5f83815260016020818152604080842060070154600283528185208186529092529092208281559081016111188582611bc5565b50600281016111278482611bc5565b505f6003820181905585815260016020526040812060070180549161114b83611c80565b91905055505050505050565b335f9081526005602052604081205460ff166111855760405162461bcd60e51b81526004016105c190611977565b8385106111c45760405162461bcd60e51b815260206004820152600d60248201526c496e76616c69642074696d657360981b60448201526064016105c1565b600780549081905f6111d583611c80565b90915550505f8181526001602081905260409091208281559081016111fa8a82611bc5565b50600281016112098982611bc5565b50600381018790556004810186905560058101805460ff19908116909155600782018690556008820180549091168515151790556006810180546001810182555f9182526020909120018054336001600160a01b031990911617905560405182907f52be7c4e77b4de76b7607d621492061fe13b58597e72dfb5e51ab8f6187ed14190611297908c90611ca4565b60405180910390a250979650505050505050565b6112b36112e8565b6001600160a01b0381166112dc57604051631e4fbdf760e01b81525f60048201526024016105c1565b6112e581611314565b50565b5f546001600160a01b031633146106855760405163118cdaa760e01b81523360048201526024016105c1565b5f80546001600160a01b038381166001600160a01b0319831681178455604051919092169283917f8be0079c531659141344cd1fd0a4f28419497f9722a3daafe3b4186f6b6457e09190a35050565b6040518061012001604052805f815260200160608152602001606081526020015f81526020015f81526020015f60038111156113a1576113a161144c565b81526060602082018190525f6040830181905291015290565b5f602082840312156113ca575f5ffd5b81356001600160a01b03811681146113e0575f5ffd5b9392505050565b5f5f604083850312156113f8575f5ffd5b50508035926020909101359150565b5f60208284031215611417575f5ffd5b5035919050565b5f81518084528060208401602086015e5f602082860101526020601f19601f83011685010191505092915050565b634e487b7160e01b5f52602160045260245ffd5b6004811061147c57634e487b7160e01b5f52602160045260245ffd5b9052565b88815261010060208201525f61149a61010083018a61141e565b82810360408401526114ac818a61141e565b9150508660608301528560808301526114c860a0830186611460565b8360c083015282151560e08301529998505050505050505050565b848152608060208201525f6114fb608083018661141e565b828103604084015261150d818661141e565b91505082606083015295945050505050565b634e487b7160e01b5f52604160045260245ffd5b604051601f8201601f1916810167ffffffffffffffff8111828210171561155c5761155c61151f565b604052919050565b5f82601f830112611573575f5ffd5b8135602083015f5f67ffffffffffffffff8411156115935761159361151f565b50601f8301601f19166020016115a881611533565b9150508281528583830111156115bc575f5ffd5b828260208301375f92810160200192909252509392505050565b5f5f604083850312156115e7575f5ffd5b823567ffffffffffffffff8111156115fd575f5ffd5b61160985828601611564565b92505083603f84011261161a575f5ffd5b602061162581611533565b806040860187811115611636575f5ffd5b602087015b81811015611652578035845292840192840161163b565b509497909650945050505050565b5f8151808452602084019350602083015f5b828110156116995781516001600160a01b0316865260209586019590910190600101611672565b5093949350505050565b60208152815160208201525f602083015161012060408401526116ca61014084018261141e565b90506040840151601f198483030160608501526116e7828261141e565b91505060608401516080840152608084015160a084015260a084015161171060c0850182611460565b5060c0840151838203601f190160e085015261172c8282611660565b91505060e084015161010084015261010084015161174f61012085018215159052565b509392505050565b5f60208284031215611767575f5ffd5b813567ffffffffffffffff81111561177d575f5ffd5b61178984828501611564565b949350505050565b608081525f6117a3608083018761141e565b856020840152828103604084015261150d818661141e565b5f5f5f5f608085870312156117ce575f5ffd5b8435935060208501359250604085013567ffffffffffffffff8111156117f2575f5ffd5b6117fe87828801611564565b925050606085013567ffffffffffffffff81111561181a575f5ffd5b61182687828801611564565b91505092959194509250565b5f5f5f60608486031215611844575f5ffd5b83359250602084013567ffffffffffffffff811115611861575f5ffd5b61186d86828701611564565b925050604084013567ffffffffffffffff811115611889575f5ffd5b61189586828701611564565b9150509250925092565b80151581146112e5575f5ffd5b5f5f5f5f5f5f60c087890312156118c1575f5ffd5b863567ffffffffffffffff8111156118d7575f5ffd5b6118e389828a01611564565b965050602087013567ffffffffffffffff8111156118ff575f5ffd5b61190b89828a01611564565b95505060408701359350606087013592506080870135915060a08701356119318161189f565b809150509295509295509295565b600181811c9082168061195357607f821691505b60208210810361197157634e487b7160e01b5f52602260045260245ffd5b50919050565b60208082526010908201526f4e6f7420616e20617574686f7269747960801b604082015260600190565b5f82601f8301126119b0575f5ffd5b6119ba6040611533565b8060408401858111156119cb575f5ffd5b845b818110156119e55780518452602093840193016119cd565b509095945050505050565b5f5f5f6101008486031215611a03575f5ffd5b611a0d85856119a1565b925084605f850112611a1d575f5ffd5b6040611a2881611533565b8060c0870188811115611a39575f5ffd5b604088015b81811015611a5f57611a508a826119a1565b84526020909301928401611a3e565b50819550611a6d89826119a1565b9450505050509250925092565b805f5b6002811015611a9c578151845260209384019390910190600101611a7d565b50505050565b6101208101611ab18287611a7a565b60408201855f5b6002811015611ae257611acc838351611a7a565b6040929092019160209190910190600101611ab8565b505050611af260c0830185611a7a565b6101008201835f5b6001811015611b19578151835260209283019290910190600101611afa565b50505095945050505050565b5f60208284031215611b35575f5ffd5b81516113e08161189f565b5f82518060208501845e5f920191825250919050565b80516020808301519190811015611971575f1960209190910360031b1b16919050565b601f821115611bc057805f5260205f20601f840160051c81016020851015611b9e5750805b601f840160051c820191505b81811015611bbd575f8155600101611baa565b50505b505050565b815167ffffffffffffffff811115611bdf57611bdf61151f565b611bf381611bed845461193f565b84611b79565b6020601f821160018114611c25575f8315611c0e5750848201515b5f19600385901b1c1916600184901b178455611bbd565b5f84815260208120601f198516915b82811015611c545787850151825560209485019460019092019101611c34565b5084821015611c7157868401515f19600387901b60f8161c191681555b50505050600190811b01905550565b5f60018201611c9d57634e487b7160e01b5f52601160045260245ffd5b5060010190565b602081525f6113e0602083018461141e56fea2646970667358221220d4b6c1e39c160c36f741d5c99dffe26621b40b4dab9c92939c1ad8b0c0bb8b9664736f6c634300081c0033",
  "linkReferences": {},
  "deployedLinkReferences": {},
  "immutableReferences": {},
  "inputSourceName": "project/contracts/EVoting.sol",
  "buildInfoId": "solc-0_8_28-bfebea5334f0f98613b65cb981d0e580255df00c"
}