{
  "_format": "hh3-artifact-1",
  "contractName": "EVoting",
  "sourceName": "contracts/EVoting.sol",
  "abi": [
    {
      "inputs": [
        {
          "internalType": "address",
          "name": "_voterVerifier",
          "type": "address"
        },
        {
          "internalType": "address",
          "name": "_voteVerifier",
          "type": "address"
        },
        {
          "internalType": "address",
          "name": "_humanityVerifier",
          "type": "address"
        },
        {
          "internalType": "address",
          "name": "_authorityVerifier",
          "type": "address"
        }
      ],
      "stateMutability": "nonpayable",
      "type": "constructor"
    },
    {
      "inputs": [
        {
          "internalType": "address",
          "name": "owner",
          "type": "address"
        }
      ],
      "name": "OwnableInvalidOwner",
      "type": "error"
    },
    {
      "inputs": [
        {
          "internalType": "address",
          "name": "account",
          "type": "address"
        }
      ],
      "name": "OwnableUnauthorizedAccount",
      "type": "error"
    },
    {
      "anonymous": false,
      "inputs": [
        {
          "indexed": true,
          "internalType": "address",
          "name": "authority",
          "type": "address"
        }
      ],
      "name": "AuthorityAdded",
      "type": "event"
    },
    {
      "anonymous": false,
      "inputs": [
        {
          "indexed": true,
          "internalType": "uint256",
          "name": "electionId",
          "type": "uint256"
        },
        {
          "indexed": false,
          "internalType": "string",
          "name": "title",
          "type": "string"
        }
      ],
      "name": "ElectionCreated",
      "type": "event"
    },
    {
      "anonymous": false,
      "inputs": [
        {
          "indexed": true,
          "internalType": "uint256",
          "name": "electionId",
          "type": "uint256"
        }
      ],
      "name": "ElectionEnded",
      "type": "event"
    },
    {
      "anonymous": false,
      "inputs": [
        {
          "indexed": true,
          "internalType": "uint256",
          "name": "electionId",
          "type": "uint256"
        }
      ],
      "name": "ElectionStarted",
      "type": "event"
    },
    {
      "anonymous": false,
      "inputs": [
        {
          "indexed": true,
          "internalType": "address",
          "name": "voter",
          "type": "address"
        }
      ],
      "name": "HumanityVerified",
      "type": "event"
    },
    {
      "anonymous": false,
      "inputs": [
        {
          "indexed": true,
          "internalType": "address",
          "name": "previousOwner",
          "type": "address"
        },
        {
          "indexed": true,
          "internalType": "address",
          "name": "newOwner",
          "type": "address"
        }
      ],
      "name": "OwnershipTransferred",
      "type": "event"
    },
    {
      "anonymous": false,
      "inputs": [
        {
          "indexed": true,
          "internalType": "uint256",
          "name": "electionId",
          "type": "uint256"
        },
        {
          "indexed": true,
          "internalType": "uint256",
          "name": "candidateId",
          "type": "uint256"
        }
      ],
      "name": "VoteCasted",
      "type": "event"
    },
    {
      "inputs": [
        {
          "internalType": "address",
          "name": "_authority",
          "type": "address"
        }
      ],
      "name": "addAuthority",
      "outputs": [],
      "stateMutability": "nonpayable",
      "type": "function"
    },
    {
      "inputs": [
        {
          "internalType": "uint256",
          "name": "_electionId",
          "type": "uint256"
        },
        {
          "internalType": "string",
          "name": "_name",
          "type": "string"
        },
        {
          "internalType": "string",
          "name": "_ipfsHash",
          "type": "string"
        }
      ],
      "name": "addCandidate",
      "outputs": [],
      "stateMutability": "nonpayable",
      "type": "function"
    },
    {
      "inputs": [
        {
          "internalType": "address",
          "name": "",
          "type": "address"
        }
      ],
      "name": "authorities",
      "outputs": [
        {
          "internalType": "bool",
          "name": "",
          "type": "bool"
        }
      ],
      "stateMutability": "view",
      "type": "function"
    },
    {
      "inputs": [],
      "name": "authorityVerifier",
      "outputs": [
        {
          "internalType": "contract AuthorityVerifier",
          "name": "",
          "type": "address"
        }
      ],
      "stateMutability": "view",
      "type": "function"
    },
    {
      "inputs": [
        {
          "internalType": "uint256",
          "name": "",
          "type": "uint256"
        },
        {
          "internalType": "uint256",
          "name": "",
          "type": "uint256"
        }
      ],
      "name": "candidates",
      "outputs": [
        {
          "internalType": "uint256",
          "name": "id",
          "type": "uint256"
        },
        {
          "internalType": "string",
          "name": "name",
          "type": "string"
        },
        {
          "internalType": "string",
          "name": "ipfsHash",
          "type": "string"
        },
        {
          "internalType": "uint256",
          "name": "voteCount",
          "type": "uint256"
        }
      ],
      "stateMutability": "view",
      "type": "function"
    },
    {
      "inputs": [
        {
          "internalType": "uint256",
          "name": "_electionId",
          "type": "uint256"
        },
        {
          "internalType": "uint256",
          "name": "_candidateId",
          "type": "uint256"
        },
        {
          "internalType": "bytes",
          "name": "_nullifier",
          "type": "bytes"
        },
        {
          "internalType": "uint256[2]",
          "name": "a",
          "type": "uint256[2]"
        },
        {
          "internalType": "uint256[2][2]",
          "name": "b",
          "type": "uint256[2][2]"
        },
        {
          "internalType": "uint256[2]",
          "name": "c",
          "type": "uint256[2]"
        },
        {
          "internalType": "uint256[5]",
          "name": "_publicSignals",
          "type": "uint256[5]"
        }
      ],
      "name": "castVote",
      "outputs": [],
      "stateMutability": "nonpayable",
      "type": "function"
    },
    {
      "inputs": [
        {
          "internalType": "string",
          "name": "_title",
          "type": "string"
        },
        {
          "internalType": "string",
          "name": "_ipfsHash",
          "type": "string"
        },
        {
          "internalType": "uint256",
          "name": "_startTime",
          "type": "uint256"
        },
        {
          "internalType": "uint256",
          "name": "_endTime",
          "type": "uint256"
        },
        {
          "internalType": "uint256",
          "name": "_candidateCount",
          "type": "uint256"
        },
        {
          "internalType": "bool",
          "name": "_requireHumanity",
          "type": "bool"
        }
      ],
      "name": "createElection",
      "outputs": [
        {
          "internalType": "uint256",
          "name": "",
          "type": "uint256"
        }
      ],
      "stateMutability": "nonpayable",
      "type": "function"
    },
    {
      "inputs": [
        {
          "internalType": "uint256",
          "name": "",
          "type": "uint256"
        }
      ],
      "name": "elections",
      "outputs": [
        {
          "internalType": "uint256",
          "name": "id",
          "type": "uint256"
        },
        {
          "internalType": "string",
          "name": "title",
          "type": "string"
        },
        {
          "internalType": "string",
          "name": "ipfsHash",
          "type": "string"
        },
        {
          "internalType": "uint256",
          "name": "startTime",
          "type": "uint256"
        },
        {
          "internalType": "uint256",
          "name": "endTime",
          "type": "uint256"
        },
        {
          "internalType": "enum EVoting.ElectionState",
          "name": "state",
          "type": "uint8"
        },
        {
          "internalType": "uint256",
          "name": "candidateCount",
          "type": "uint256"
        },
        {
          "internalType": "bool",
          "name": "humanityCheckRequired",
          "type": "bool"
        }
      ],
      "stateMutability": "view",
      "type": "function"
    },
    {
      "inputs": [
        {
          "internalType": "uint256",
          "name": "_electionId",
          "type": "uint256"
        }
      ],
      "name": "endElection",
      "outputs": [],
      "stateMutability": "nonpayable",
      "type": "function"
    },
    {
      "inputs": [
        {
          "internalType": "uint256",
          "name": "_electionId",
          "type": "uint256"
        },
        {
          "internalType": "uint256",
          "name": "_candidateId",
          "type": "uint256"
        }
      ],
      "name": "getCandidateVotes",
      "outputs": [
        {
          "internalType": "uint256",
          "name": "",
          "type": "uint256"
        }
      ],
      "stateMutability": "view",
      "type": "function"
    },
    {
      "inputs": [
        {
          "internalType": "uint256",
          "name": "_electionId",
          "type": "uint256"
        }
      ],
      "name": "getElection",
      "outputs": [
        {
          "components": [
            {
              "internalType": "uint256",
              "name": "id",
              "type": "uint256"
            },
            {
              "internalType": "string",
              "name": "title",
              "type": "string"
            },
            {
              "internalType": "string",
              "name": "ipfsHash",
              "type": "string"
            },
            {
              "internalType": "uint256",
              "name": "startTime",
              "type": "uint256"
            },
            {
              "internalType": "uint256",
              "name": "endTime",
              "type": "uint256"
            },
            {
              "internalType": "enum EVoting.ElectionState",
              "name": "state",
              "type": "uint8"
            },
            {
              "internalType": "address[]",
              "name": "authorities",
              "type": "address[]"
            },
            {
              "internalType": "uint256",
              "name": "candidateCount",
              "type": "uint256"
            },
            {
              "internalType": "bool",
              "name": "humanityCheckRequired",
              "type": "bool"
            }
          ],
          "internalType": "struct EVoting.Election",
          "name": "",
          "type": "tuple"
        }
      ],
      "stateMutability": "view",
      "type": "function"
    },
    {
      "inputs": [
        {
          "internalType": "uint256",
          "name": "_electionId",
          "type": "uint256"
        }
      ],
      "name": "getTotalVotes",
      "outputs": [
        {
          "internalType": "uint256",
          "name": "",
          "type": "uint256"
        }
      ],
      "stateMutability": "view",
      "type": "function"
    },
    {
      "inputs": [
        {
          "internalType": "address",
          "name": "",
          "type": "address"
        }
      ],
      "name": "humanVerified",
      "outputs": [
        {
          "internalType": "bool",
          "name": "",
          "type": "bool"
        }
      ],
      "stateMutability": "view",
      "type": "function"
    },
    {
      "inputs": [],
      "name": "humanityVerifier",
      "outputs": [
        {
          "internalType": "contract HumanityVerifier",
          "name": "",
          "type": "address"
        }
      ],
      "stateMutability": "view",
      "type": "function"
    },
    {
      "inputs": [],
      "name": "owner",
      "outputs": [
        {
          "internalType": "address",
          "name": "",
          "type": "address"
        }
      ],
      "stateMutability": "view",
      "type": "function"
    },
    {
      "inputs": [],
      "name": "renounceOwnership",
      "outputs": [],
      "stateMutability": "nonpayable",
      "type": "function"
    },
    {
      "inputs": [
        {
          "internalType": "uint256",
          "name": "_electionId",
          "type": "uint256"
        }
      ],
      "name": "startElection",
      "outputs": [],
      "stateMutability": "nonpayable",
      "type": "function"
    },
    {
      "inputs": [
        {
          "internalType": "address",
          "name": "newOwner",
          "type": "address"
        }
      ],
      "name": "transferOwnership",
      "outputs": [],
      "stateMutability": "nonpayable",
      "type": "function"
    },
    {
      "inputs": [
        {
          "internalType": "bytes",
          "name": "",
          "type": "bytes"
        }
      ],
      "name": "usedNullifiers",
      "outputs": [
        {
          "internalType": "bool",
          "name": "",
          "type": "bool"
        }
      ],
      "stateMutability": "view",
      "type": "function"
    },
    {
      "inputs": [
        {
          "internalType": "uint256",
          "name": "_electionId",
          "type": "uint256"
        },
        {
          "internalType": "bytes32",
          "name": "_actionHash",
          "type": "bytes32"
        },
        {
          "internalType": "uint256[2]",
          "name": "a",
          "type": "uint256[2]"
        },
        {
          "internalType": "uint256[2][2]",
          "name": "b",
          "type": "uint256[2][2]"
        },
        {
          "internalType": "uint256[2]",
          "name": "c",
          "type": "uint256[2]"
        },
        {
          "internalType": "uint256[2]",
          "name": "_publicSignals",
          "type": "uint256[2]"
        }
      ],
      "name": "verifyAuthority",
      "outputs": [
        {
          "internalType": "bool",
          "name": "",
          "type": "bool"
        }
      ],
      "stateMutability": "view",
      "type": "function"
    },
    {
      "inputs": [
        {
          "internalType": "uint256[2]",
          "name": "a",
          "type": "uint256[2]"
        },
        {
          "internalType": "uint256[2][2]",
          "name": "b",
          "type": "uint256[2][2]"
        },
        {
          "internalType": "uint256[2]",
          "name": "c",
          "type": "uint256[2]"
        },
        {
          "internalType": "uint256[5]",
          "name": "_publicSignals",
          "type": "uint256[5]"
        }
      ],
      "name": "verifyHumanity",
      "outputs": [],
      "stateMutability": "nonpayable",
      "type": "function"
    },
    {
      "inputs": [
        {
          "internalType": "uint256",
          "name": "_electionId",
          "type": "uint256"
        },
        {
          "internalType": "uint256[2]",
          "name": "a",
          "type": "uint256[2]"
        },
        {
          "internalType": "uint256[2][2]",
          "name": "b",
          "type": "uint256[2][2]"
        },
        {
          "internalType": "uint256[2]",
          "name": "c",
          "type": "uint256[2]"
        },
        {
          "internalType": "uint256[1]",
          "name": "_publicSignals",
          "type": "uint256[1]"
        }
      ],
      "name": "verifyVoterEligibility",
      "outputs": [
        {
          "internalType": "bool",
          "name": "",
          "type": "bool"
        }
      ],
      "stateMutability": "view",
      "type": "function"
    },
    {
      "inputs": [],
      "name": "voteVerifier",
      "outputs": [
        {
          "internalType": "contract VoteVerifier",
          "name": "",
          "type": "address"
        }
      ],
      "stateMutability": "view",
      "type": "function"
    },
    {
      "inputs": [],
      "name": "voterVerifier",
      "outputs": [
        {
          "internalType": "contract VoterVerifier",
          "name": "",
          "type": "address"
        }
      ],
      "stateMutability": "view",
      "type": "function"
    },
    {
      "inputs": [
        {
          "internalType": "uint256",
          "name": "",
          "type": "uint256"
        },
        {
          "internalType": "uint256",
          "name": "",
          "type": "uint256"
        }
      ],
      "name": "votes",
      "outputs": [
        {
          "internalType": "bytes",
          "name": "nullifier",
          "type": "bytes"
        },
        {
          "internalType": "uint256",
          "name": "candidateId",
          "type": "uint256"
        },
        {
          "internalType": "bytes",
          "name": "proof",
          "type": "bytes"
        },
        {
          "internalType": "uint256",
          "name": "timestamp",
          "type": "uint256"
        }
      ],
      "stateMutability": "view",
      "type": "function"
    }
  ],
  "bytecode": "0x608060405234801561000f575f5ffd5b5060405161227f38038061227f83398101604081905261002e91610133565b338061005357604051631e4fbdf760e01b81525f600482015260240160405180910390fd5b61005c816100c9565b50600880546001600160a01b039586166001600160a01b0319918216179091556009805494861694821694909417909355600a805492851692841692909217909155600b8054919093169116179055335f908152600560205260409020805460ff19166001179055610184565b5f80546001600160a01b038381166001600160a01b0319831681178455604051919092169283917f8be0079c531659141344cd1fd0a4f28419497f9722a3daafe3b4186f6b6457e09190a35050565b80516001600160a01b038116811461012e575f5ffd5b919050565b5f5f5f5f60808587031215610146575f5ffd5b61014f85610118565b935061015d60208601610118565b925061016b60408601610118565b915061017960608601610118565b905092959194509250565b6120ee806101915f395ff3fe608060405234801561000f575f5ffd5b506004361061016d575f3560e01c80638da5cb5b116100d9578063c6e36a3211610093578063eaeea7d21161006e578063eaeea7d2146103cf578063eb24da7d146103e2578063f2fde38b146103f5578063fe96d26214610408575f5ffd5b8063c6e36a3214610386578063e004abbc146103a9578063e6c62efc146103bc575f5ffd5b80638da5cb5b146102e057806391223d69146102f057806399d74c71146103125780639c98bcbb146103255780639d71077714610338578063ae005f0f14610358575f5ffd5b8063527726981161012a57806352772698146102555780635e6fef01146102685780636d32dc4b1461028f578063715018a6146102a25780637cdd67a4146102aa5780637de14242146102bd575f5ffd5b80630988df7514610171578063112d26a9146101a857806326defa73146101e35780632ce35e11146101f85780633824795e146102175780634c9832dd14610242575b5f5ffd5b61019361017f366004611656565b60066020525f908152604090205460ff1681565b60405190151581526020015b60405180910390f35b6101d56101b6366004611683565b5f91825260026020908152604080842092845291905290206003015490565b60405190815260200161019f565b6101f66101f1366004611656565b61041b565b005b6101d56102063660046116a3565b5f9081526003602052604090205490565b60085461022a906001600160a01b031681565b6040516001600160a01b03909116815260200161019f565b6101f66102503660046117d8565b61046e565b600b5461022a906001600160a01b031681565b61027b6102763660046116a3565b610572565b60405161019f989796959493929190611891565b6101f661029d3660046116a3565b6106c4565b6101f661079c565b6101f66102b8366004611966565b6107af565b6102d06102cb366004611683565b610bbe565b60405161019f94939291906119fa565b5f546001600160a01b031661022a565b6101936102fe366004611656565b60056020525f908152604090205460ff1681565b60095461022a906001600160a01b031681565b6101f66103333660046116a3565b610cfd565b61034b6103463660046116a3565b610dd1565b60405161019f9190611a79565b610193610366366004611b2d565b805160208183018101805160048252928201919093012091525460ff1681565b610399610394366004611683565b610fe1565b60405161019f9493929190611b67565b6101936103b7366004611b91565b6110ac565b6101f66103ca366004611c3a565b611176565b6101d56103dd366004611cb4565b6112b2565b600a5461022a906001600160a01b031681565b6101f6610403366004611656565b611406565b610193610416366004611d47565b611443565b610423611584565b6001600160a01b0381165f81815260056020526040808220805460ff19166001179055517f550a8ae64ec9d6640b6f168a26d3e6364b90defe8110c92135aa775b279e54ea9190a250565b600a546040516334baeab960e01b81526001600160a01b03909116906334baeab9906104a4908790879087908790600401611e05565b602060405180830381865afa1580156104bf573d5f5f3e3d5ffd5b505050506040513d601f19601f820116820180604052508101906104e39190611e61565b61052d5760405162461bcd60e51b815260206004820152601660248201527524b73b30b634b210343ab6b0b734ba3c90383937b7b360511b60448201526064015b60405180910390fd5b335f81815260066020526040808220805460ff19166001179055517f27f4fbd341e117ea7858d9523598450be843076f15d1e8f9cf0ca969cef8b17e9190a250505050565b600160208190525f91825260409091208054918101805461059290611e7c565b80601f01602080910402602001604051908101604052809291908181526020018280546105be90611e7c565b80156106095780601f106105e057610100808354040283529160200191610609565b820191905f5260205f20905b8154815290600101906020018083116105ec57829003601f168201915b50505050509080600201805461061e90611e7c565b80601f016020809104026020016040519081016040528092919081815260200182805461064a90611e7c565b80156106955780601f1061066c57610100808354040283529160200191610695565b820191905f5260205f20905b81548152906001019060200180831161067857829003601f168201915b50505060038401546004850154600586015460078701546008909701549596929591945060ff90811693501688565b335f9081526005602052604090205460ff166106f25760405162461bcd60e51b815260040161052490611eb4565b5f8181526001602052604081206005015460ff1660038111156107175761071761185d565b146107545760405162461bcd60e51b815260206004820152600d60248201526c496e76616c696420737461746560981b6044820152606401610524565b5f818152600160208190526040808320600501805460ff19169092179091555182917f159eee87222a0489c529f2153c26ad65d718f2cc33ebaa8d399d1dd5b39facaa91a250565b6107a4611584565b6107ad5f6115b0565b565b8660015f8281526001602052604090206005015460ff1660038111156107d7576107d761185d565b1461081a5760405162461bcd60e51b8152602060048201526013602482015272456c656374696f6e206e6f742061637469766560681b6044820152606401610524565b5f88815260016020526040902060080154889060ff161561089357335f9081526006602052604090205460ff166108935760405162461bcd60e51b815260206004820152601760248201527f48756d616e69747920636865636b2072657175697265640000000000000000006044820152606401610524565b5f8981526001602052604090206007015488106108e65760405162461bcd60e51b8152602060048201526011602482015270496e76616c69642063616e64696461746560781b6044820152606401610524565b6004876040516108f69190611ede565b9081526040519081900360200190205460ff161561094a5760405162461bcd60e51b8152602060048201526011602482015270159bdd1948185b1c9958591e4818d85cdd607a1b6044820152606401610524565b6009546040516334baeab960e01b81526001600160a01b03909116906334baeab990610980908990899089908990600401611e05565b602060405180830381865afa15801561099b573d5f5f3e3d5ffd5b505050506040513d601f19601f820116820180604052508101906109bf9190611e61565b610a005760405162461bcd60e51b815260206004820152601260248201527124b73b30b634b2103b37ba3290383937b7b360711b6044820152606401610524565b60608301518914610a535760405162461bcd60e51b815260206004820152601d60248201527f456c656374696f6e204944206d69736d6174636820696e2070726f6f660000006044820152606401610524565b60808301518814610aa65760405162461bcd60e51b815260206004820152601e60248201527f43616e646964617465204944206d69736d6174636820696e2070726f6f6600006044820152606401610524565b6001600488604051610ab89190611ede565b9081526040805160209281900383018120805460ff1916941515949094179093555f8c8152600383528181206080850183528b85528385018d905282518085018452828152928501929092524260608501528154600181018355918152919091208251600490920201908190610b2e9082611f40565b506020820151600182015560408201516002820190610b4d9082611f40565b50606091909101516003918201555f8a81526002602090815260408083208c84529091528120909101805491610b8283611ffb565b909155505060405188908a907f5d4760119c8e8650149aac097d38c70515dfce015031561ad115606533e479be905f90a3505050505050505050565b600260209081525f928352604080842090915290825290208054600182018054919291610bea90611e7c565b80601f0160208091040260200160405190810160405280929190818152602001828054610c1690611e7c565b8015610c615780601f10610c3857610100808354040283529160200191610c61565b820191905f5260205f20905b815481529060010190602001808311610c4457829003601f168201915b505050505090806002018054610c7690611e7c565b80601f0160208091040260200160405190810160405280929190818152602001828054610ca290611e7c565b8015610ced5780601f10610cc457610100808354040283529160200191610ced565b820191905f5260205f20905b815481529060010190602001808311610cd057829003601f168201915b5050505050908060030154905084565b335f9081526005602052604090205460ff16610d2b5760405162461bcd60e51b815260040161052490611eb4565b60015f8281526001602052604090206005015460ff166003811115610d5257610d5261185d565b14610d8c5760405162461bcd60e51b815260206004820152600a6024820152694e6f742061637469766560b01b6044820152606401610524565b5f81815260016020526040808220600501805460ff191660021790555182917f562cd572b2ba3b666cd989fc4ca98419ec81e75f04528df9d9d76fdb7807ee7191a250565b610dd96115ff565b5f828152600160208181526040928390208351610120810190945280548452918201805491840191610e0a90611e7c565b80601f0160208091040260200160405190810160405280929190818152602001828054610e3690611e7c565b8015610e815780601f10610e5857610100808354040283529160200191610e81565b820191905f5260205f20905b815481529060010190602001808311610e6457829003601f168201915b50505050508152602001600282018054610e9a90611e7c565b80601f0160208091040260200160405190810160405280929190818152602001828054610ec690611e7c565b8015610f115780601f10610ee857610100808354040283529160200191610f11565b820191905f5260205f20905b815481529060010190602001808311610ef457829003601f168201915b5050509183525050600382810154602083015260048301546040830152600583015460609092019160ff1690811115610f4c57610f4c61185d565b6003811115610f5d57610f5d61185d565b815260200160068201805480602002602001604051908101604052809291908181526020018280548015610fb857602002820191905f5260205f20905b81546001600160a01b03168152600190910190602001808311610f9a575b50505091835250506007820154602082015260089091015460ff16151560409091015292915050565b6003602052815f5260405f208181548110610ffa575f80fd5b905f5260205f2090600402015f9150915050805f01805461101a90611e7c565b80601f016020809104026020016040519081016040528092919081815260200182805461104690611e7c565b80156110915780601f1061106857610100808354040283529160200191611091565b820191905f5260205f20905b81548152906001019060200180831161107457829003601f168201915b505050505090806001015490806002018054610c7690611e7c565b80515f9086146110f55760405162461bcd60e51b815260206004820152601460248201527308ad8cac6e8d2dedc40928840dad2e6dac2e8c6d60631b6044820152606401610524565b6008546040516343753b4d60e01b81526001600160a01b03909116906343753b4d9061112b90889088908890889060040161201f565b602060405180830381865afa158015611146573d5f5f3e3d5ffd5b505050506040513d601f19601f8201168201806040525081019061116a9190611e61565b90505b95945050505050565b335f9081526005602052604090205460ff166111a45760405162461bcd60e51b815260040161052490611eb4565b5f8381526001602052604081206005015460ff1660038111156111c9576111c961185d565b1461120d5760405162461bcd60e51b8152602060048201526014602482015273456c656374696f6e206e6f742070656e64696e6760601b6044820152606401610524565b5f83815260016020818152604080842060070154815160808101835281815280840188815281840188905260608201879052898752600285528387208388529094529190942081518155915190928201906112689082611f40565b506040820151600282019061127d9082611f40565b50606091909101516003909101555f8481526001602052604081206007018054916112a783611ffb565b919050555050505050565b335f9081526005602052604081205460ff166112e05760405162461bcd60e51b815260040161052490611eb4565b83851061131f5760405162461bcd60e51b815260206004820152600d60248201526c496e76616c69642074696d657360981b6044820152606401610524565b600780549081905f61133083611ffb565b90915550505f8181526001602081905260409091208281559081016113558a82611f40565b50600281016113648982611f40565b50600381018790556004810186905560058101805460ff19908116909155600782018690556008820180549091168515151790556006810180546001810182555f9182526020909120018054336001600160a01b031990911617905560405182907f52be7c4e77b4de76b7607d621492061fe13b58597e72dfb5e51ab8f6187ed141906113f2908c9061206f565b60405180910390a250979650505050505050565b61140e611584565b6001600160a01b03811661143757604051631e4fbdf760e01b81525f6004820152602401610524565b611440816115b0565b50565b80515f90871461148c5760405162461bcd60e51b815260206004820152601460248201527308ad8cac6e8d2dedc40928840dad2e6dac2e8c6d60631b6044820152606401610524565b602082015186146114d65760405162461bcd60e51b8152602060048201526014602482015273082c6e8d2dedc40d0c2e6d040dad2e6dac2e8c6d60631b6044820152606401610524565b335f9081526005602052604090205460ff166115045760405162461bcd60e51b815260040161052490611eb4565b600b54604051637ae4eb4f60e11b81526001600160a01b039091169063f5c9d69e9061153a908890889088908890600401612081565b602060405180830381865afa158015611555573d5f5f3e3d5ffd5b505050506040513d601f19601f820116820180604052508101906115799190611e61565b979650505050505050565b5f546001600160a01b031633146107ad5760405163118cdaa760e01b8152336004820152602401610524565b5f80546001600160a01b038381166001600160a01b0319831681178455604051919092169283917f8be0079c531659141344cd1fd0a4f28419497f9722a3daafe3b4186f6b6457e09190a35050565b6040518061012001604052805f815260200160608152602001606081526020015f81526020015f81526020015f600381111561163d5761163d61185d565b81526060602082018190525f6040830181905291015290565b5f60208284031215611666575f5ffd5b81356001600160a01b038116811461167c575f5ffd5b9392505050565b5f5f60408385031215611694575f5ffd5b50508035926020909101359150565b5f602082840312156116b3575f5ffd5b5035919050565b634e487b7160e01b5f52604160045260245ffd5b604051601f8201601f1916810167ffffffffffffffff811182821017156116f7576116f76116ba565b604052919050565b5f82601f83011261170e575f5ffd5b5f61171960406116ce565b905080604084018581111561172c575f5ffd5b845b8181101561174657803583526020928301920161172e565b509195945050505050565b5f82601f830112611760575f5ffd5b604061176b816116ce565b80608085018681111561177c575f5ffd5b855b8181101561179f5761179088826116ff565b8452602090930192840161177e565b50909695505050505050565b5f82601f8301126117ba575f5ffd5b5f6117c560a06116ce565b90508060a084018581111561172c575f5ffd5b5f5f5f5f6101a085870312156117ec575f5ffd5b6117f686866116ff565b93506118058660408701611751565b92506118148660c087016116ff565b91506118248661010087016117ab565b905092959194509250565b5f81518084528060208401602086015e5f602082860101526020601f19601f83011685010191505092915050565b634e487b7160e01b5f52602160045260245ffd5b6004811061188d57634e487b7160e01b5f52602160045260245ffd5b9052565b88815261010060208201525f6118ab61010083018a61182f565b82810360408401526118bd818a61182f565b9150508660608301528560808301526118d960a0830186611871565b8360c083015282151560e08301529998505050505050505050565b5f82601f830112611903575f5ffd5b8135602083015f5f67ffffffffffffffff841115611923576119236116ba565b50601f8301601f1916602001611938816116ce565b91505082815285838301111561194c575f5ffd5b828260208301375f92810160200192909252509392505050565b5f5f5f5f5f5f5f610200888a03121561197d575f5ffd5b8735965060208801359550604088013567ffffffffffffffff8111156119a1575f5ffd5b6119ad8a828b016118f4565b9550506119bd8960608a016116ff565b93506119cc8960a08a01611751565b92506119dc896101208a016116ff565b91506119ec896101608a016117ab565b905092959891949750929550565b848152608060208201525f611a12608083018661182f565b8281036040840152611a24818661182f565b91505082606083015295945050505050565b5f8151808452602084019350602083015f5b82811015611a6f5781516001600160a01b0316865260209586019590910190600101611a48565b5093949350505050565b60208152815160208201525f60208301516101206040840152611aa061014084018261182f565b90506040840151601f19848303016060850152611abd828261182f565b91505060608401516080840152608084015160a084015260a0840151611ae660c0850182611871565b5060c0840151838203601f190160e0850152611b028282611a36565b91505060e0840151610100840152610100840151611b2561012085018215159052565b509392505050565b5f60208284031215611b3d575f5ffd5b813567ffffffffffffffff811115611b53575f5ffd5b611b5f848285016118f4565b949350505050565b608081525f611b79608083018761182f565b8560208401528281036040840152611a24818661182f565b5f5f5f5f5f6101408688031215611ba6575f5ffd5b85359450611bb787602088016116ff565b9350611bc68760608801611751565b9250611bd58760e088016116ff565b91505f8761013f880112611be7575f5ffd5b505f806020611bf5816116ce565b915081925061014089018a811115611c0b575f5ffd5b6101208a015b81811015611c285780358552938201938201611c11565b50505080925050509295509295909350565b5f5f5f60608486031215611c4c575f5ffd5b83359250602084013567ffffffffffffffff811115611c69575f5ffd5b611c75868287016118f4565b925050604084013567ffffffffffffffff811115611c91575f5ffd5b611c9d868287016118f4565b9150509250925092565b8015158114611440575f5ffd5b5f5f5f5f5f5f60c08789031215611cc9575f5ffd5b863567ffffffffffffffff811115611cdf575f5ffd5b611ceb89828a016118f4565b965050602087013567ffffffffffffffff811115611d07575f5ffd5b611d1389828a016118f4565b95505060408701359350606087013592506080870135915060a0870135611d3981611ca7565b809150509295509295509295565b5f5f5f5f5f5f6101808789031215611d5d575f5ffd5b8635955060208701359450611d7588604089016116ff565b9350611d848860808901611751565b9250611d948861010089016116ff565b9150611da48861014089016116ff565b90509295509295509295565b805f5b6002811015611dd2578151845260209384019390910190600101611db3565b50505050565b805f5b6002811015611dd257611def848351611db0565b6040939093019260209190910190600101611ddb565b6101a08101611e148287611db0565b611e216040830186611dd8565b611e2e60c0830185611db0565b6101008201835f5b6005811015611e55578151835260209283019290910190600101611e36565b50505095945050505050565b5f60208284031215611e71575f5ffd5b815161167c81611ca7565b600181811c90821680611e9057607f821691505b602082108103611eae57634e487b7160e01b5f52602260045260245ffd5b50919050565b60208082526010908201526f4e6f7420616e20617574686f7269747960801b604082015260600190565b5f82518060208501845e5f920191825250919050565b601f821115611f3b57805f5260205f20601f840160051c81016020851015611f195750805b601f840160051c820191505b81811015611f38575f8155600101611f25565b50505b505050565b815167ffffffffffffffff811115611f5a57611f5a6116ba565b611f6e81611f688454611e7c565b84611ef4565b6020601f821160018114611fa0575f8315611f895750848201515b5f19600385901b1c1916600184901b178455611f38565b5f84815260208120601f198516915b82811015611fcf5787850151825560209485019460019092019101611faf565b5084821015611fec57868401515f19600387901b60f8161c191681555b50505050600190811b01905550565b5f6001820161201857634e487b7160e01b5f52601160045260245ffd5b5060010190565b610120810161202e8287611db0565b61203b6040830186611dd8565b61204860c0830185611db0565b6101008201835f5b6001811015611e55578151835260209283019290910190600101612050565b602081525f61167c602083018461182f565b61014081016120908287611db0565b61209d6040830186611dd8565b6120aa60c0830185611db0565b61116d610100830184611db056fea2646970667358221220752c97955aff83a82cdb386a85e76aa3a01e693cb78bc63d73800f7e0483aa0964736f6c634300081c0033",
  "linkReferences": {},
  "deployedLinkReferences": {},
  "immutableReferences": {},
  "inputSourceName": "project/contracts/EVoting.sol",
  "buildInfoId": "solc-0_8_28-5a0b8c2c5b36e94053e8a5c23796c8f0c5b79839"
}