{
  "_format": "hh3-artifact-1",
  "contractName": "EVoting",
  "sourceName": "contracts/EVoting.sol",
  "abi": [
    {
      "inputs": [
        {
          "internalType": "address",
          "name": "_voterVerifier",
          "type": "address"
        },
        {
          "internalType": "address",
          "name": "_voteVerifier",
          "type": "address"
        },
        {
          "internalType": "address",
          "name": "_humanityVerifier",
          "type": "address"
        },
        {
          "internalType": "address",
          "name": "_authorityVerifier",
          "type": "address"
        }
      ],
      "stateMutability": "nonpayable",
      "type": "constructor"
    },
    {
      "inputs": [
        {
          "internalType": "address",
          "name": "owner",
          "type": "address"
        }
      ],
      "name": "OwnableInvalidOwner",
      "type": "error"
    },
    {
      "inputs": [
        {
          "internalType": "address",
          "name": "account",
          "type": "address"
        }
      ],
      "name": "OwnableUnauthorizedAccount",
      "type": "error"
    },
    {
      "anonymous": false,
      "inputs": [
        {
          "indexed": true,
          "internalType": "address",
          "name": "authority",
          "type": "address"
        }
      ],
      "name": "AuthorityAdded",
      "type": "event"
    },
    {
      "anonymous": false,
      "inputs": [
        {
          "indexed": true,
          "internalType": "uint256",
          "name": "electionId",
          "type": "uint256"
        },
        {
          "indexed": false,
          "internalType": "string",
          "name": "title",
          "type": "string"
        }
      ],
      "name": "ElectionCreated",
      "type": "event"
    },
    {
      "anonymous": false,
      "inputs": [
        {
          "indexed": true,
          "internalType": "uint256",
          "name": "electionId",
          "type": "uint256"
        }
      ],
      "name": "ElectionEnded",
      "type": "event"
    },
    {
      "anonymous": false,
      "inputs": [
        {
          "indexed": true,
          "internalType": "uint256",
          "name": "electionId",
          "type": "uint256"
        }
      ],
      "name": "ElectionStarted",
      "type": "event"
    },
    {
      "anonymous": false,
      "inputs": [
        {
          "indexed": true,
          "internalType": "address",
          "name": "voter",
          "type": "address"
        }
      ],
      "name": "HumanityVerified",
      "type": "event"
    },
    {
      "anonymous": false,
      "inputs": [
        {
          "indexed": true,
          "internalType": "address",
          "name": "previousOwner",
          "type": "address"
        },
        {
          "indexed": true,
          "internalType": "address",
          "name": "newOwner",
          "type": "address"
        }
      ],
      "name": "OwnershipTransferred",
      "type": "event"
    },
    {
      "anonymous": false,
      "inputs": [
        {
          "indexed": true,
          "internalType": "uint256",
          "name": "electionId",
          "type": "uint256"
        },
        {
          "indexed": true,
          "internalType": "uint256",
          "name": "candidateId",
          "type": "uint256"
        }
      ],
      "name": "VoteCasted",
      "type": "event"
    },
    {
      "inputs": [
        {
          "internalType": "address",
          "name": "_authority",
          "type": "address"
        }
      ],
      "name": "addAuthority",
      "outputs": [],
      "stateMutability": "nonpayable",
      "type": "function"
    },
    {
      "inputs": [
        {
          "internalType": "uint256",
          "name": "_electionId",
          "type": "uint256"
        },
        {
          "internalType": "string",
          "name": "_name",
          "type": "string"
        },
        {
          "internalType": "string",
          "name": "_ipfsHash",
          "type": "string"
        }
      ],
      "name": "addCandidate",
      "outputs": [],
      "stateMutability": "nonpayable",
      "type": "function"
    },
    {
      "inputs": [
        {
          "internalType": "address",
          "name": "",
          "type": "address"
        }
      ],
      "name": "authorities",
      "outputs": [
        {
          "internalType": "bool",
          "name": "",
          "type": "bool"
        }
      ],
      "stateMutability": "view",
      "type": "function"
    },
    {
      "inputs": [],
      "name": "authorityVerifier",
      "outputs": [
        {
          "internalType": "contract IVerifier",
          "name": "",
          "type": "address"
        }
      ],
      "stateMutability": "view",
      "type": "function"
    },
    {
      "inputs": [
        {
          "internalType": "uint256",
          "name": "",
          "type": "uint256"
        },
        {
          "internalType": "uint256",
          "name": "",
          "type": "uint256"
        }
      ],
      "name": "candidates",
      "outputs": [
        {
          "internalType": "uint256",
          "name": "id",
          "type": "uint256"
        },
        {
          "internalType": "string",
          "name": "name",
          "type": "string"
        },
        {
          "internalType": "string",
          "name": "ipfsHash",
          "type": "string"
        },
        {
          "internalType": "uint256",
          "name": "voteCount",
          "type": "uint256"
        }
      ],
      "stateMutability": "view",
      "type": "function"
    },
    {
      "inputs": [
        {
          "internalType": "uint256",
          "name": "_electionId",
          "type": "uint256"
        },
        {
          "internalType": "uint256",
          "name": "_candidateId",
          "type": "uint256"
        },
        {
          "internalType": "bytes",
          "name": "_nullifier",
          "type": "bytes"
        },
        {
          "internalType": "bytes",
          "name": "_proof",
          "type": "bytes"
        }
      ],
      "name": "castVote",
      "outputs": [],
      "stateMutability": "nonpayable",
      "type": "function"
    },
    {
      "inputs": [
        {
          "internalType": "string",
          "name": "_title",
          "type": "string"
        },
        {
          "internalType": "string",
          "name": "_ipfsHash",
          "type": "string"
        },
        {
          "internalType": "uint256",
          "name": "_startTime",
          "type": "uint256"
        },
        {
          "internalType": "uint256",
          "name": "_endTime",
          "type": "uint256"
        },
        {
          "internalType": "uint256",
          "name": "_candidateCount",
          "type": "uint256"
        },
        {
          "internalType": "bool",
          "name": "_requireHumanity",
          "type": "bool"
        }
      ],
      "name": "createElection",
      "outputs": [
        {
          "internalType": "uint256",
          "name": "",
          "type": "uint256"
        }
      ],
      "stateMutability": "nonpayable",
      "type": "function"
    },
    {
      "inputs": [
        {
          "internalType": "uint256",
          "name": "",
          "type": "uint256"
        }
      ],
      "name": "elections",
      "outputs": [
        {
          "internalType": "uint256",
          "name": "id",
          "type": "uint256"
        },
        {
          "internalType": "string",
          "name": "title",
          "type": "string"
        },
        {
          "internalType": "string",
          "name": "ipfsHash",
          "type": "string"
        },
        {
          "internalType": "uint256",
          "name": "startTime",
          "type": "uint256"
        },
        {
          "internalType": "uint256",
          "name": "endTime",
          "type": "uint256"
        },
        {
          "internalType": "enum EVoting.ElectionState",
          "name": "state",
          "type": "uint8"
        },
        {
          "internalType": "uint256",
          "name": "candidateCount",
          "type": "uint256"
        },
        {
          "internalType": "bool",
          "name": "humanityCheckRequired",
          "type": "bool"
        }
      ],
      "stateMutability": "view",
      "type": "function"
    },
    {
      "inputs": [
        {
          "internalType": "uint256",
          "name": "_electionId",
          "type": "uint256"
        }
      ],
      "name": "endElection",
      "outputs": [],
      "stateMutability": "nonpayable",
      "type": "function"
    },
    {
      "inputs": [
        {
          "internalType": "uint256",
          "name": "_electionId",
          "type": "uint256"
        },
        {
          "internalType": "uint256",
          "name": "_candidateId",
          "type": "uint256"
        }
      ],
      "name": "getCandidateVotes",
      "outputs": [
        {
          "internalType": "uint256",
          "name": "",
          "type": "uint256"
        }
      ],
      "stateMutability": "view",
      "type": "function"
    },
    {
      "inputs": [
        {
          "internalType": "uint256",
          "name": "_electionId",
          "type": "uint256"
        }
      ],
      "name": "getElection",
      "outputs": [
        {
          "components": [
            {
              "internalType": "uint256",
              "name": "id",
              "type": "uint256"
            },
            {
              "internalType": "string",
              "name": "title",
              "type": "string"
            },
            {
              "internalType": "string",
              "name": "ipfsHash",
              "type": "string"
            },
            {
              "internalType": "uint256",
              "name": "startTime",
              "type": "uint256"
            },
            {
              "internalType": "uint256",
              "name": "endTime",
              "type": "uint256"
            },
            {
              "internalType": "enum EVoting.ElectionState",
              "name": "state",
              "type": "uint8"
            },
            {
              "internalType": "address[]",
              "name": "authorities",
              "type": "address[]"
            },
            {
              "internalType": "uint256",
              "name": "candidateCount",
              "type": "uint256"
            },
            {
              "internalType": "bool",
              "name": "humanityCheckRequired",
              "type": "bool"
            }
          ],
          "internalType": "struct EVoting.Election",
          "name": "",
          "type": "tuple"
        }
      ],
      "stateMutability": "view",
      "type": "function"
    },
    {
      "inputs": [
        {
          "internalType": "uint256",
          "name": "_electionId",
          "type": "uint256"
        }
      ],
      "name": "getTotalVotes",
      "outputs": [
        {
          "internalType": "uint256",
          "name": "",
          "type": "uint256"
        }
      ],
      "stateMutability": "view",
      "type": "function"
    },
    {
      "inputs": [
        {
          "internalType": "address",
          "name": "",
          "type": "address"
        }
      ],
      "name": "humanVerified",
      "outputs": [
        {
          "internalType": "bool",
          "name": "",
          "type": "bool"
        }
      ],
      "stateMutability": "view",
      "type": "function"
    },
    {
      "inputs": [],
      "name": "humanityVerifier",
      "outputs": [
        {
          "internalType": "contract IHumanityVerifier",
          "name": "",
          "type": "address"
        }
      ],
      "stateMutability": "view",
      "type": "function"
    },
    {
      "inputs": [],
      "name": "owner",
      "outputs": [
        {
          "internalType": "address",
          "name": "",
          "type": "address"
        }
      ],
      "stateMutability": "view",
      "type": "function"
    },
    {
      "inputs": [],
      "name": "renounceOwnership",
      "outputs": [],
      "stateMutability": "nonpayable",
      "type": "function"
    },
    {
      "inputs": [
        {
          "internalType": "uint256",
          "name": "_electionId",
          "type": "uint256"
        }
      ],
      "name": "startElection",
      "outputs": [],
      "stateMutability": "nonpayable",
      "type": "function"
    },
    {
      "inputs": [
        {
          "internalType": "address",
          "name": "newOwner",
          "type": "address"
        }
      ],
      "name": "transferOwnership",
      "outputs": [],
      "stateMutability": "nonpayable",
      "type": "function"
    },
    {
      "inputs": [
        {
          "internalType": "bytes",
          "name": "",
          "type": "bytes"
        }
      ],
      "name": "usedNullifiers",
      "outputs": [
        {
          "internalType": "bool",
          "name": "",
          "type": "bool"
        }
      ],
      "stateMutability": "view",
      "type": "function"
    },
    {
      "inputs": [
        {
          "internalType": "bytes",
          "name": "_proof",
          "type": "bytes"
        },
        {
          "internalType": "uint256[2]",
          "name": "_publicSignals",
          "type": "uint256[2]"
        }
      ],
      "name": "verifyHumanity",
      "outputs": [],
      "stateMutability": "nonpayable",
      "type": "function"
    },
    {
      "inputs": [],
      "name": "voteVerifier",
      "outputs": [
        {
          "internalType": "contract IVoteVerifier",
          "name": "",
          "type": "address"
        }
      ],
      "stateMutability": "view",
      "type": "function"
    },
    {
      "inputs": [],
      "name": "voterVerifier",
      "outputs": [
        {
          "internalType": "contract IVerifier",
          "name": "",
          "type": "address"
        }
      ],
      "stateMutability": "view",
      "type": "function"
    },
    {
      "inputs": [
        {
          "internalType": "uint256",
          "name": "",
          "type": "uint256"
        },
        {
          "internalType": "uint256",
          "name": "",
          "type": "uint256"
        }
      ],
      "name": "votes",
      "outputs": [
        {
          "internalType": "bytes",
          "name": "nullifier",
          "type": "bytes"
        },
        {
          "internalType": "uint256",
          "name": "candidateId",
          "type": "uint256"
        },
        {
          "internalType": "bytes",
          "name": "proof",
          "type": "bytes"
        },
        {
          "internalType": "uint256",
          "name": "timestamp",
          "type": "uint256"
        }
      ],
      "stateMutability": "view",
      "type": "function"
    }
  ],
  "bytecode": "0x608060405234801561000f575f5ffd5b50604051611d37380380611d3783398101604081905261002e91610133565b338061005357604051631e4fbdf760e01b81525f600482015260240160405180910390fd5b61005c816100c9565b50600880546001600160a01b039586166001600160a01b0319918216179091556009805494861694821694909417909355600a805492851692841692909217909155600b8054919093169116179055335f908152600560205260409020805460ff19166001179055610184565b5f80546001600160a01b038381166001600160a01b0319831681178455604051919092169283917f8be0079c531659141344cd1fd0a4f28419497f9722a3daafe3b4186f6b6457e09190a35050565b80516001600160a01b038116811461012e575f5ffd5b919050565b5f5f5f5f60808587031215610146575f5ffd5b61014f85610118565b935061015d60208601610118565b925061016b60408601610118565b915061017960608601610118565b905092959194509250565b611ba6806101915f395ff3fe608060405234801561000f575f5ffd5b5060043610610148575f3560e01c80638da5cb5b116100bf578063c6e36a3211610079578063c6e36a321461034e578063d643508814610371578063e6c62efc14610384578063eaeea7d214610397578063eb24da7d146103aa578063f2fde38b146103bd575f5ffd5b80638da5cb5b146102a857806391223d69146102b857806399d74c71146102da5780639c98bcbb146102ed5780639d71077714610300578063ae005f0f14610320575f5ffd5b80634eddb49a116101105780634eddb49a1461021d57806352772698146102305780635e6fef01146102435780636d32dc4b1461026a578063715018a61461027d5780637de1424214610285575f5ffd5b80630988df751461014c578063112d26a91461018357806326defa73146101be5780632ce35e11146101d35780633824795e146101f2575b5f5ffd5b61016e61015a3660046112b4565b60066020525f908152604090205460ff1681565b60405190151581526020015b60405180910390f35b6101b06101913660046112e1565b5f91825260026020908152604080842092845291905290206003015490565b60405190815260200161017a565b6101d16101cc3660046112b4565b6103d0565b005b6101b06101e1366004611301565b5f9081526003602052604090205490565b600854610205906001600160a01b031681565b6040516001600160a01b03909116815260200161017a565b6101d161022b3660046113cf565b610423565b600b54610205906001600160a01b031681565b610256610251366004611301565b610545565b60405161017a9897969594939291906114ba565b6101d1610278366004611301565b610697565b6101d161076f565b6102986102933660046112e1565b610782565b60405161017a949392919061151d565b5f546001600160a01b0316610205565b61016e6102c63660046112b4565b60056020525f908152604090205460ff1681565b600954610205906001600160a01b031681565b6101d16102fb366004611301565b6108c1565b61031361030e366004611301565b610995565b60405161017a919061159c565b61016e61032e366004611650565b805160208183018101805160048252928201919093012091525460ff1681565b61036161035c3660046112e1565b610ba5565b60405161017a949392919061168a565b6101d161037f3660046116b4565b610c70565b6101d161039236600461172b565b610f15565b6101b06103a53660046117a5565b611051565b600a54610205906001600160a01b031681565b6101d16103cb3660046112b4565b6111a5565b6103d86111e2565b6001600160a01b0381165f81815260056020526040808220805460ff19166001179055517f550a8ae64ec9d6640b6f168a26d3e6364b90defe8110c92135aa775b279e54ea9190a250565b5f5f5f8480602001905181019061043a9190611887565b600a54604051637ae4eb4f60e11b815293965091945092506001600160a01b03169063f5c9d69e90610476908690869086908a90600401611939565b602060405180830381865afa158015610491573d5f5f3e3d5ffd5b505050506040513d601f19601f820116820180604052508101906104b591906119a0565b6104ff5760405162461bcd60e51b815260206004820152601660248201527524b73b30b634b210343ab6b0b734ba3c90383937b7b360511b60448201526064015b60405180910390fd5b335f81815260066020526040808220805460ff19166001179055517f27f4fbd341e117ea7858d9523598450be843076f15d1e8f9cf0ca969cef8b17e9190a25050505050565b600160208190525f918252604090912080549181018054610565906119bb565b80601f0160208091040260200160405190810160405280929190818152602001828054610591906119bb565b80156105dc5780601f106105b3576101008083540402835291602001916105dc565b820191905f5260205f20905b8154815290600101906020018083116105bf57829003601f168201915b5050505050908060020180546105f1906119bb565b80601f016020809104026020016040519081016040528092919081815260200182805461061d906119bb565b80156106685780601f1061063f57610100808354040283529160200191610668565b820191905f5260205f20905b81548152906001019060200180831161064b57829003601f168201915b50505060038401546004850154600586015460078701546008909701549596929591945060ff90811693501688565b335f9081526005602052604090205460ff166106c55760405162461bcd60e51b81526004016104f6906119f3565b5f8181526001602052604081206005015460ff1660038111156106ea576106ea611486565b146107275760405162461bcd60e51b815260206004820152600d60248201526c496e76616c696420737461746560981b60448201526064016104f6565b5f818152600160208190526040808320600501805460ff19169092179091555182917f159eee87222a0489c529f2153c26ad65d718f2cc33ebaa8d399d1dd5b39facaa91a250565b6107776111e2565b6107805f61120e565b565b600260209081525f9283526040808420909152908252902080546001820180549192916107ae906119bb565b80601f01602080910402602001604051908101604052809291908181526020018280546107da906119bb565b80156108255780601f106107fc57610100808354040283529160200191610825565b820191905f5260205f20905b81548152906001019060200180831161080857829003601f168201915b50505050509080600201805461083a906119bb565b80601f0160208091040260200160405190810160405280929190818152602001828054610866906119bb565b80156108b15780601f10610888576101008083540402835291602001916108b1565b820191905f5260205f20905b81548152906001019060200180831161089457829003601f168201915b5050505050908060030154905084565b335f9081526005602052604090205460ff166108ef5760405162461bcd60e51b81526004016104f6906119f3565b60015f8281526001602052604090206005015460ff16600381111561091657610916611486565b146109505760405162461bcd60e51b815260206004820152600a6024820152694e6f742061637469766560b01b60448201526064016104f6565b5f81815260016020526040808220600501805460ff191660021790555182917f562cd572b2ba3b666cd989fc4ca98419ec81e75f04528df9d9d76fdb7807ee7191a250565b61099d61125d565b5f8281526001602081815260409283902083516101208101909452805484529182018054918401916109ce906119bb565b80601f01602080910402602001604051908101604052809291908181526020018280546109fa906119bb565b8015610a455780601f10610a1c57610100808354040283529160200191610a45565b820191905f5260205f20905b815481529060010190602001808311610a2857829003601f168201915b50505050508152602001600282018054610a5e906119bb565b80601f0160208091040260200160405190810160405280929190818152602001828054610a8a906119bb565b8015610ad55780601f10610aac57610100808354040283529160200191610ad5565b820191905f5260205f20905b815481529060010190602001808311610ab857829003601f168201915b5050509183525050600382810154602083015260048301546040830152600583015460609092019160ff1690811115610b1057610b10611486565b6003811115610b2157610b21611486565b815260200160068201805480602002602001604051908101604052809291908181526020018280548015610b7c57602002820191905f5260205f20905b81546001600160a01b03168152600190910190602001808311610b5e575b50505091835250506007820154602082015260089091015460ff16151560409091015292915050565b6003602052815f5260405f208181548110610bbe575f80fd5b905f5260205f2090600402015f9150915050805f018054610bde906119bb565b80601f0160208091040260200160405190810160405280929190818152602001828054610c0a906119bb565b8015610c555780601f10610c2c57610100808354040283529160200191610c55565b820191905f5260205f20905b815481529060010190602001808311610c3857829003601f168201915b50505050509080600101549080600201805461083a906119bb565b8360015f8281526001602052604090206005015460ff166003811115610c9857610c98611486565b14610cdb5760405162461bcd60e51b8152602060048201526013602482015272456c656374696f6e206e6f742061637469766560681b60448201526064016104f6565b5f85815260016020526040902060080154859060ff1615610d5457335f9081526006602052604090205460ff16610d545760405162461bcd60e51b815260206004820152601760248201527f48756d616e69747920636865636b20726571756972656400000000000000000060448201526064016104f6565b5f868152600160205260409020600701548510610da75760405162461bcd60e51b8152602060048201526011602482015270496e76616c69642063616e64696461746560781b60448201526064016104f6565b600484604051610db79190611a1d565b9081526040519081900360200190205460ff1615610e0b5760405162461bcd60e51b8152602060048201526011602482015270159bdd1948185b1c9958591e4818d85cdd607a1b60448201526064016104f6565b6001600485604051610e1d9190611a1d565b9081526040805160209281900383018120805460ff1916941515949094179093555f898152600383528181206080850183528885528385018a90529184018790524260608501528154600181018355918152919091208251600490920201908190610e889082611a7f565b506020820151600182015560408201516002820190610ea79082611a7f565b50606091909101516003918201555f8781526002602090815260408083208984529091528120909101805491610edc83611b3a565b9091555050604051859087907f5d4760119c8e8650149aac097d38c70515dfce015031561ad115606533e479be905f90a3505050505050565b335f9081526005602052604090205460ff16610f435760405162461bcd60e51b81526004016104f6906119f3565b5f8381526001602052604081206005015460ff166003811115610f6857610f68611486565b14610fac5760405162461bcd60e51b8152602060048201526014602482015273456c656374696f6e206e6f742070656e64696e6760601b60448201526064016104f6565b5f83815260016020818152604080842060070154815160808101835281815280840188815281840188905260608201879052898752600285528387208388529094529190942081518155915190928201906110079082611a7f565b506040820151600282019061101c9082611a7f565b50606091909101516003909101555f84815260016020526040812060070180549161104683611b3a565b919050555050505050565b335f9081526005602052604081205460ff1661107f5760405162461bcd60e51b81526004016104f6906119f3565b8385106110be5760405162461bcd60e51b815260206004820152600d60248201526c496e76616c69642074696d657360981b60448201526064016104f6565b600780549081905f6110cf83611b3a565b90915550505f8181526001602081905260409091208281559081016110f48a82611a7f565b50600281016111038982611a7f565b50600381018790556004810186905560058101805460ff19908116909155600782018690556008820180549091168515151790556006810180546001810182555f9182526020909120018054336001600160a01b031990911617905560405182907f52be7c4e77b4de76b7607d621492061fe13b58597e72dfb5e51ab8f6187ed14190611191908c90611b5e565b60405180910390a250979650505050505050565b6111ad6111e2565b6001600160a01b0381166111d657604051631e4fbdf760e01b81525f60048201526024016104f6565b6111df8161120e565b50565b5f546001600160a01b031633146107805760405163118cdaa760e01b81523360048201526024016104f6565b5f80546001600160a01b038381166001600160a01b0319831681178455604051919092169283917f8be0079c531659141344cd1fd0a4f28419497f9722a3daafe3b4186f6b6457e09190a35050565b6040518061012001604052805f815260200160608152602001606081526020015f81526020015f81526020015f600381111561129b5761129b611486565b81526060602082018190525f6040830181905291015290565b5f602082840312156112c4575f5ffd5b81356001600160a01b03811681146112da575f5ffd5b9392505050565b5f5f604083850312156112f2575f5ffd5b50508035926020909101359150565b5f60208284031215611311575f5ffd5b5035919050565b634e487b7160e01b5f52604160045260245ffd5b604051601f8201601f1916810167ffffffffffffffff8111828210171561135557611355611318565b604052919050565b5f82601f83011261136c575f5ffd5b8135602083015f5f67ffffffffffffffff84111561138c5761138c611318565b50601f8301601f19166020016113a18161132c565b9150508281528583830111156113b5575f5ffd5b828260208301375f92810160200192909252509392505050565b5f5f606083850312156113e0575f5ffd5b823567ffffffffffffffff8111156113f6575f5ffd5b6114028582860161135d565b92505083603f840112611413575f5ffd5b61141d604061132c565b80606085018681111561142e575f5ffd5b602086015b8181101561144b578035845260209384019301611433565b5093969095509350505050565b5f81518084528060208401602086015e5f602082860101526020601f19601f83011685010191505092915050565b634e487b7160e01b5f52602160045260245ffd5b600481106114b657634e487b7160e01b5f52602160045260245ffd5b9052565b88815261010060208201525f6114d461010083018a611458565b82810360408401526114e6818a611458565b91505086606083015285608083015261150260a083018661149a565b8360c083015282151560e08301529998505050505050505050565b848152608060208201525f6115356080830186611458565b82810360408401526115478186611458565b91505082606083015295945050505050565b5f8151808452602084019350602083015f5b828110156115925781516001600160a01b031686526020958601959091019060010161156b565b5093949350505050565b60208152815160208201525f602083015161012060408401526115c3610140840182611458565b90506040840151601f198483030160608501526115e08282611458565b91505060608401516080840152608084015160a084015260a084015161160960c085018261149a565b5060c0840151838203601f190160e08501526116258282611559565b91505060e084015161010084015261010084015161164861012085018215159052565b509392505050565b5f60208284031215611660575f5ffd5b813567ffffffffffffffff811115611676575f5ffd5b6116828482850161135d565b949350505050565b608081525f61169c6080830187611458565b85602084015282810360408401526115478186611458565b5f5f5f5f608085870312156116c7575f5ffd5b8435935060208501359250604085013567ffffffffffffffff8111156116eb575f5ffd5b6116f78782880161135d565b925050606085013567ffffffffffffffff811115611713575f5ffd5b61171f8782880161135d565b91505092959194509250565b5f5f5f6060848603121561173d575f5ffd5b83359250602084013567ffffffffffffffff81111561175a575f5ffd5b6117668682870161135d565b925050604084013567ffffffffffffffff811115611782575f5ffd5b61178e8682870161135d565b9150509250925092565b80151581146111df575f5ffd5b5f5f5f5f5f5f60c087890312156117ba575f5ffd5b863567ffffffffffffffff8111156117d0575f5ffd5b6117dc89828a0161135d565b965050602087013567ffffffffffffffff8111156117f8575f5ffd5b61180489828a0161135d565b95505060408701359350606087013592506080870135915060a087013561182a81611798565b809150509295509295509295565b5f82601f830112611847575f5ffd5b611851604061132c565b806040840185811115611862575f5ffd5b845b8181101561187c578051845260209384019301611864565b509095945050505050565b5f5f5f610100848603121561189a575f5ffd5b6118a48585611838565b925084605f8501126118b4575f5ffd5b60406118bf8161132c565b8060c08701888111156118d0575f5ffd5b604088015b818110156118f6576118e78a82611838565b845260209093019284016118d5565b508195506119048982611838565b9450505050509250925092565b805f5b6002811015611933578151845260209384019390910190600101611914565b50505050565b61014081016119488287611911565b60408201855f5b600281101561197957611963838351611911565b604092909201916020919091019060010161194f565b50505061198960c0830185611911565b611997610100830184611911565b95945050505050565b5f602082840312156119b0575f5ffd5b81516112da81611798565b600181811c908216806119cf57607f821691505b6020821081036119ed57634e487b7160e01b5f52602260045260245ffd5b50919050565b60208082526010908201526f4e6f7420616e20617574686f7269747960801b604082015260600190565b5f82518060208501845e5f920191825250919050565b601f821115611a7a57805f5260205f20601f840160051c81016020851015611a585750805b601f840160051c820191505b81811015611a77575f8155600101611a64565b50505b505050565b815167ffffffffffffffff811115611a9957611a99611318565b611aad81611aa784546119bb565b84611a33565b6020601f821160018114611adf575f8315611ac85750848201515b5f19600385901b1c1916600184901b178455611a77565b5f84815260208120601f198516915b82811015611b0e5787850151825560209485019460019092019101611aee565b5084821015611b2b57868401515f19600387901b60f8161c191681555b50505050600190811b01905550565b5f60018201611b5757634e487b7160e01b5f52601160045260245ffd5b5060010190565b602081525f6112da602083018461145856fea26469706673582212208955db6c526ca170398e254d0b33630339fdc3fe933bf5a13c19f4adab1d1e8864736f6c634300081c0033",
  "linkReferences": {},
  "deployedLinkReferences": {},
  "immutableReferences": {},
  "inputSourceName": "project/contracts/EVoting.sol",
  "buildInfoId": "solc-0_8_28-9ad1877d0278824c661b035edb264096046bc5be"
}