{
  "_format": "hh3-artifact-1",
  "contractName": "EVoting",
  "sourceName": "contracts/EVoting.sol",
  "abi": [
    {
      "inputs": [
        {
          "internalType": "address",
          "name": "_voterVerifier",
          "type": "address"
        },
        {
          "internalType": "address",
          "name": "_voteVerifier",
          "type": "address"
        },
        {
          "internalType": "address",
          "name": "_humanityVerifier",
          "type": "address"
        },
        {
          "internalType": "address",
          "name": "_authorityVerifier",
          "type": "address"
        }
      ],
      "stateMutability": "nonpayable",
      "type": "constructor"
    },
    {
      "inputs": [
        {
          "internalType": "address",
          "name": "owner",
          "type": "address"
        }
      ],
      "name": "OwnableInvalidOwner",
      "type": "error"
    },
    {
      "inputs": [
        {
          "internalType": "address",
          "name": "account",
          "type": "address"
        }
      ],
      "name": "OwnableUnauthorizedAccount",
      "type": "error"
    },
    {
      "anonymous": false,
      "inputs": [
        {
          "indexed": true,
          "internalType": "address",
          "name": "authority",
          "type": "address"
        }
      ],
      "name": "AuthorityAdded",
      "type": "event"
    },
    {
      "anonymous": false,
      "inputs": [
        {
          "indexed": true,
          "internalType": "uint256",
          "name": "electionId",
          "type": "uint256"
        },
        {
          "indexed": false,
          "internalType": "string",
          "name": "title",
          "type": "string"
        }
      ],
      "name": "ElectionCreated",
      "type": "event"
    },
    {
      "anonymous": false,
      "inputs": [
        {
          "indexed": true,
          "internalType": "uint256",
          "name": "electionId",
          "type": "uint256"
        }
      ],
      "name": "ElectionEnded",
      "type": "event"
    },
    {
      "anonymous": false,
      "inputs": [
        {
          "indexed": true,
          "internalType": "uint256",
          "name": "electionId",
          "type": "uint256"
        }
      ],
      "name": "ElectionFinalized",
      "type": "event"
    },
    {
      "anonymous": false,
      "inputs": [
        {
          "indexed": true,
          "internalType": "uint256",
          "name": "electionId",
          "type": "uint256"
        }
      ],
      "name": "ElectionReset",
      "type": "event"
    },
    {
      "anonymous": false,
      "inputs": [
        {
          "indexed": true,
          "internalType": "uint256",
          "name": "electionId",
          "type": "uint256"
        }
      ],
      "name": "ElectionStarted",
      "type": "event"
    },
    {
      "anonymous": false,
      "inputs": [
        {
          "indexed": true,
          "internalType": "address",
          "name": "voter",
          "type": "address"
        }
      ],
      "name": "HumanityVerified",
      "type": "event"
    },
    {
      "anonymous": false,
      "inputs": [
        {
          "indexed": true,
          "internalType": "address",
          "name": "previousOwner",
          "type": "address"
        },
        {
          "indexed": true,
          "internalType": "address",
          "name": "newOwner",
          "type": "address"
        }
      ],
      "name": "OwnershipTransferred",
      "type": "event"
    },
    {
      "anonymous": false,
      "inputs": [
        {
          "indexed": true,
          "internalType": "uint256",
          "name": "electionId",
          "type": "uint256"
        },
        {
          "indexed": true,
          "internalType": "uint256",
          "name": "candidateId",
          "type": "uint256"
        }
      ],
      "name": "VoteCasted",
      "type": "event"
    },
    {
      "inputs": [
        {
          "internalType": "address",
          "name": "_authority",
          "type": "address"
        }
      ],
      "name": "addAuthority",
      "outputs": [],
      "stateMutability": "nonpayable",
      "type": "function"
    },
    {
      "inputs": [
        {
          "internalType": "uint256",
          "name": "_electionId",
          "type": "uint256"
        },
        {
          "internalType": "string",
          "name": "_name",
          "type": "string"
        },
        {
          "internalType": "string",
          "name": "_ipfsHash",
          "type": "string"
        }
      ],
      "name": "addCandidate",
      "outputs": [],
      "stateMutability": "nonpayable",
      "type": "function"
    },
    {
      "inputs": [
        {
          "internalType": "address",
          "name": "",
          "type": "address"
        }
      ],
      "name": "authorities",
      "outputs": [
        {
          "internalType": "bool",
          "name": "",
          "type": "bool"
        }
      ],
      "stateMutability": "view",
      "type": "function"
    },
    {
      "inputs": [],
      "name": "authorityVerifier",
      "outputs": [
        {
          "internalType": "contract AuthorityVerifier",
          "name": "",
          "type": "address"
        }
      ],
      "stateMutability": "view",
      "type": "function"
    },
    {
      "inputs": [
        {
          "internalType": "uint256",
          "name": "",
          "type": "uint256"
        },
        {
          "internalType": "uint256",
          "name": "",
          "type": "uint256"
        }
      ],
      "name": "candidates",
      "outputs": [
        {
          "internalType": "uint256",
          "name": "id",
          "type": "uint256"
        },
        {
          "internalType": "string",
          "name": "name",
          "type": "string"
        },
        {
          "internalType": "string",
          "name": "ipfsHash",
          "type": "string"
        },
        {
          "internalType": "uint256",
          "name": "voteCount",
          "type": "uint256"
        }
      ],
      "stateMutability": "view",
      "type": "function"
    },
    {
      "inputs": [
        {
          "internalType": "uint256",
          "name": "_electionId",
          "type": "uint256"
        },
        {
          "internalType": "uint256",
          "name": "_candidateId",
          "type": "uint256"
        },
        {
          "internalType": "uint256",
          "name": "_nullifier",
          "type": "uint256"
        },
        {
          "internalType": "uint256[2]",
          "name": "a",
          "type": "uint256[2]"
        },
        {
          "internalType": "uint256[2][2]",
          "name": "b",
          "type": "uint256[2][2]"
        },
        {
          "internalType": "uint256[2]",
          "name": "c",
          "type": "uint256[2]"
        },
        {
          "internalType": "uint256[4]",
          "name": "_publicSignals",
          "type": "uint256[4]"
        }
      ],
      "name": "castVote",
      "outputs": [],
      "stateMutability": "nonpayable",
      "type": "function"
    },
    {
      "inputs": [
        {
          "internalType": "string",
          "name": "_title",
          "type": "string"
        },
        {
          "internalType": "string",
          "name": "_ipfsHash",
          "type": "string"
        },
        {
          "internalType": "uint256",
          "name": "_startTime",
          "type": "uint256"
        },
        {
          "internalType": "uint256",
          "name": "_endTime",
          "type": "uint256"
        },
        {
          "internalType": "uint256",
          "name": "_candidateCount",
          "type": "uint256"
        },
        {
          "internalType": "bool",
          "name": "_requireHumanity",
          "type": "bool"
        }
      ],
      "name": "createElection",
      "outputs": [
        {
          "internalType": "uint256",
          "name": "",
          "type": "uint256"
        }
      ],
      "stateMutability": "nonpayable",
      "type": "function"
    },
    {
      "inputs": [
        {
          "internalType": "uint256",
          "name": "",
          "type": "uint256"
        }
      ],
      "name": "elections",
      "outputs": [
        {
          "internalType": "uint256",
          "name": "id",
          "type": "uint256"
        },
        {
          "internalType": "string",
          "name": "title",
          "type": "string"
        },
        {
          "internalType": "string",
          "name": "ipfsHash",
          "type": "string"
        },
        {
          "internalType": "uint256",
          "name": "startTime",
          "type": "uint256"
        },
        {
          "internalType": "uint256",
          "name": "endTime",
          "type": "uint256"
        },
        {
          "internalType": "enum EVoting.ElectionState",
          "name": "state",
          "type": "uint8"
        },
        {
          "internalType": "uint256",
          "name": "candidateCount",
          "type": "uint256"
        },
        {
          "internalType": "bool",
          "name": "humanityCheckRequired",
          "type": "bool"
        }
      ],
      "stateMutability": "view",
      "type": "function"
    },
    {
      "inputs": [
        {
          "internalType": "uint256",
          "name": "_electionId",
          "type": "uint256"
        }
      ],
      "name": "endElection",
      "outputs": [],
      "stateMutability": "nonpayable",
      "type": "function"
    },
    {
      "inputs": [
        {
          "internalType": "uint256",
          "name": "_electionId",
          "type": "uint256"
        }
      ],
      "name": "finalizeElection",
      "outputs": [],
      "stateMutability": "nonpayable",
      "type": "function"
    },
    {
      "inputs": [
        {
          "internalType": "uint256",
          "name": "_electionId",
          "type": "uint256"
        },
        {
          "internalType": "uint256",
          "name": "_candidateId",
          "type": "uint256"
        }
      ],
      "name": "getCandidateVotes",
      "outputs": [
        {
          "internalType": "uint256",
          "name": "",
          "type": "uint256"
        }
      ],
      "stateMutability": "view",
      "type": "function"
    },
    {
      "inputs": [
        {
          "internalType": "uint256",
          "name": "_electionId",
          "type": "uint256"
        }
      ],
      "name": "getElection",
      "outputs": [
        {
          "components": [
            {
              "internalType": "uint256",
              "name": "id",
              "type": "uint256"
            },
            {
              "internalType": "string",
              "name": "title",
              "type": "string"
            },
            {
              "internalType": "string",
              "name": "ipfsHash",
              "type": "string"
            },
            {
              "internalType": "uint256",
              "name": "startTime",
              "type": "uint256"
            },
            {
              "internalType": "uint256",
              "name": "endTime",
              "type": "uint256"
            },
            {
              "internalType": "enum EVoting.ElectionState",
              "name": "state",
              "type": "uint8"
            },
            {
              "internalType": "address[]",
              "name": "authorities",
              "type": "address[]"
            },
            {
              "internalType": "uint256",
              "name": "candidateCount",
              "type": "uint256"
            },
            {
              "internalType": "bool",
              "name": "humanityCheckRequired",
              "type": "bool"
            }
          ],
          "internalType": "struct EVoting.Election",
          "name": "",
          "type": "tuple"
        }
      ],
      "stateMutability": "view",
      "type": "function"
    },
    {
      "inputs": [
        {
          "internalType": "uint256",
          "name": "_electionId",
          "type": "uint256"
        }
      ],
      "name": "getTotalVotes",
      "outputs": [
        {
          "internalType": "uint256",
          "name": "",
          "type": "uint256"
        }
      ],
      "stateMutability": "view",
      "type": "function"
    },
    {
      "inputs": [
        {
          "internalType": "address",
          "name": "",
          "type": "address"
        }
      ],
      "name": "humanVerified",
      "outputs": [
        {
          "internalType": "bool",
          "name": "",
          "type": "bool"
        }
      ],
      "stateMutability": "view",
      "type": "function"
    },
    {
      "inputs": [],
      "name": "humanityVerifier",
      "outputs": [
        {
          "internalType": "contract HumanityVerifier",
          "name": "",
          "type": "address"
        }
      ],
      "stateMutability": "view",
      "type": "function"
    },
    {
      "inputs": [],
      "name": "owner",
      "outputs": [
        {
          "internalType": "address",
          "name": "",
          "type": "address"
        }
      ],
      "stateMutability": "view",
      "type": "function"
    },
    {
      "inputs": [],
      "name": "renounceOwnership",
      "outputs": [],
      "stateMutability": "nonpayable",
      "type": "function"
    },
    {
      "inputs": [
        {
          "internalType": "uint256",
          "name": "_electionId",
          "type": "uint256"
        }
      ],
      "name": "resetElection",
      "outputs": [],
      "stateMutability": "nonpayable",
      "type": "function"
    },
    {
      "inputs": [
        {
          "internalType": "uint256",
          "name": "_electionId",
          "type": "uint256"
        }
      ],
      "name": "startElection",
      "outputs": [],
      "stateMutability": "nonpayable",
      "type": "function"
    },
    {
      "inputs": [
        {
          "internalType": "address",
          "name": "newOwner",
          "type": "address"
        }
      ],
      "name": "transferOwnership",
      "outputs": [],
      "stateMutability": "nonpayable",
      "type": "function"
    },
    {
      "inputs": [
        {
          "internalType": "uint256",
          "name": "",
          "type": "uint256"
        },
        {
          "internalType": "uint256",
          "name": "",
          "type": "uint256"
        }
      ],
      "name": "usedNullifiers",
      "outputs": [
        {
          "internalType": "bool",
          "name": "",
          "type": "bool"
        }
      ],
      "stateMutability": "view",
      "type": "function"
    },
    {
      "inputs": [
        {
          "internalType": "uint256[2]",
          "name": "a",
          "type": "uint256[2]"
        },
        {
          "internalType": "uint256[2][2]",
          "name": "b",
          "type": "uint256[2][2]"
        },
        {
          "internalType": "uint256[2]",
          "name": "c",
          "type": "uint256[2]"
        },
        {
          "internalType": "uint256[3]",
          "name": "_publicSignals",
          "type": "uint256[3]"
        }
      ],
      "name": "verifyHumanity",
      "outputs": [],
      "stateMutability": "nonpayable",
      "type": "function"
    },
    {
      "inputs": [],
      "name": "voteVerifier",
      "outputs": [
        {
          "internalType": "contract VoteVerifier",
          "name": "",
          "type": "address"
        }
      ],
      "stateMutability": "view",
      "type": "function"
    },
    {
      "inputs": [],
      "name": "voterVerifier",
      "outputs": [
        {
          "internalType": "contract VoterVerifier",
          "name": "",
          "type": "address"
        }
      ],
      "stateMutability": "view",
      "type": "function"
    },
    {
      "inputs": [
        {
          "internalType": "uint256",
          "name": "",
          "type": "uint256"
        },
        {
          "internalType": "uint256",
          "name": "",
          "type": "uint256"
        }
      ],
      "name": "votes",
      "outputs": [
        {
          "internalType": "bytes",
          "name": "nullifier",
          "type": "bytes"
        },
        {
          "internalType": "uint256",
          "name": "candidateId",
          "type": "uint256"
        },
        {
          "internalType": "uint256",
          "name": "timestamp",
          "type": "uint256"
        }
      ],
      "stateMutability": "view",
      "type": "function"
    }
  ],
  "bytecode": "0x608060405234801561000f575f5ffd5b506040516121ec3803806121ec83398101604081905261002e91610133565b338061005357604051631e4fbdf760e01b81525f600482015260240160405180910390fd5b61005c816100c9565b50600880546001600160a01b039586166001600160a01b0319918216179091556009805494861694821694909417909355600a805492851692841692909217909155600b8054919093169116179055335f908152600560205260409020805460ff19166001179055610184565b5f80546001600160a01b038381166001600160a01b0319831681178455604051919092169283917f8be0079c531659141344cd1fd0a4f28419497f9722a3daafe3b4186f6b6457e09190a35050565b80516001600160a01b038116811461012e575f5ffd5b919050565b5f5f5f5f60808587031215610146575f5ffd5b61014f85610118565b935061015d60208601610118565b925061016b60408601610118565b915061017960608601610118565b905092959194509250565b61205b806101915f395ff3fe608060405234801561000f575f5ffd5b506004361061016d575f3560e01c80637de14242116100d95780639c98bcbb11610093578063e6c62efc1161006e578063e6c62efc146103cd578063eaeea7d2146103e0578063eb24da7d146103f3578063f2fde38b14610406575f5ffd5b80639c98bcbb146103785780639d7107771461038b578063c6e36a32146103ab575f5ffd5b80637de14242146102ea5780638bcd80181461030d5780638da5cb5b1461032057806391223d6914610330578063980132ee1461035257806399d74c7114610365575f5ffd5b8063527726981161012a57806352772698146102555780635c230a1b146102685780635e6fef011461027b57806363eb29e6146102a25780636d32dc4b146102cf578063715018a6146102e2575f5ffd5b80630988df7514610171578063112d26a9146101a85780631537052e146101e357806326defa73146101f85780632ce35e111461020b5780633824795e1461022a575b5f5ffd5b61019361017f366004611726565b60066020525f908152604090205460ff1681565b60405190151581526020015b60405180910390f35b6101d56101b6366004611753565b5f91825260026020908152604080842092845291905290206003015490565b60405190815260200161019f565b6101f66101f1366004611773565b610419565b005b6101f6610206366004611726565b610509565b6101d5610219366004611773565b5f9081526003602052604090205490565b60085461023d906001600160a01b031681565b6040516001600160a01b03909116815260200161019f565b600b5461023d906001600160a01b031681565b6101f661027636600461187b565b61055c565b61028e610289366004611773565b610998565b60405161019f989796959493929190611998565b6101936102b0366004611753565b600460209081525f928352604080842090915290825290205460ff1681565b6101f66102dd366004611773565b610aea565b6101f6610bc2565b6102fd6102f8366004611753565b610bd5565b60405161019f94939291906119fb565b6101f661031b366004611a37565b610d14565b5f546001600160a01b031661023d565b61019361033e366004611726565b60056020525f908152604090205460ff1681565b6101f6610360366004611773565b610e13565b60095461023d906001600160a01b031681565b6101f6610386366004611773565b610f4c565b61039e610399366004611773565b611020565b60405161019f9190611b19565b6103be6103b9366004611753565b611230565b60405161019f93929190611bcd565b6101f66103db366004611c5d565b6112f6565b6101d56103ee366004611cd7565b611432565b600a5461023d906001600160a01b031681565b6101f6610414366004611726565b611586565b335f9081526005602052604090205460ff166104505760405162461bcd60e51b815260040161044790611d6a565b60405180910390fd5b60025f8281526001602052604090206005015460ff16600381111561047757610477611964565b146104c45760405162461bcd60e51b815260206004820152601c60248201527f456c656374696f6e206d75737420626520656e646564206669727374000000006044820152606401610447565b5f81815260016020526040808220600501805460ff191660031790555182917f91dd42272d56833844c782309d408c2ce0612df469d35fcbf2bef1a8e21e4f9591a250565b6105116115c3565b6001600160a01b0381165f81815260056020526040808220805460ff19166001179055517f550a8ae64ec9d6640b6f168a26d3e6364b90defe8110c92135aa775b279e54ea9190a250565b8660015f8281526001602052604090206005015460ff16600381111561058457610584611964565b146105c75760405162461bcd60e51b8152602060048201526013602482015272456c656374696f6e206e6f742061637469766560681b6044820152606401610447565b5f88815260016020526040902060080154889060ff161561064057335f9081526006602052604090205460ff166106405760405162461bcd60e51b815260206004820152601760248201527f48756d616e69747920636865636b2072657175697265640000000000000000006044820152606401610447565b5f8981526001602052604090206007015488106106935760405162461bcd60e51b8152602060048201526011602482015270496e76616c69642063616e64696461746560781b6044820152606401610447565b5f8981526004602090815260408083208a845290915290205460ff16156106f05760405162461bcd60e51b8152602060048201526011602482015270159bdd1948185b1c9958591e4818d85cdd607a1b6044820152606401610447565b604083015189146107435760405162461bcd60e51b815260206004820152601d60248201527f456c656374696f6e204944206d69736d6174636820696e2070726f6f660000006044820152606401610447565b606083015188146107965760405162461bcd60e51b815260206004820152601e60248201527f43616e646964617465204944206d69736d6174636820696e2070726f6f6600006044820152606401610447565b825187146107db5760405162461bcd60e51b815260206004820152601260248201527109cead8d8d2ccd2cae440dad2e6dac2e8c6d60731b6044820152606401610447565b600954604051635fe8c13b60e01b81526001600160a01b0390911690635fe8c13b90610811908990899089908990600401611de9565b602060405180830381865afa15801561082c573d5f5f3e3d5ffd5b505050506040513d601f19601f820116820180604052508101906108509190611e45565b6108915760405162461bcd60e51b815260206004820152601260248201527124b73b30b634b2103b37ba3290383937b7b360711b6044820152606401610447565b5f8981526004602090815260408083208a84528252808320805460ff191660011790558b835260039091529081902081516060810190925290806108dc8a6080830190815260200190565b60408051601f1981840301815291815290825260208281018d905242929091019190915282546001810184555f938452922081519192600302019081906109239082611ee4565b5060208281015160018301556040928301516002928301555f8c81529181528282208b8352905290812060030180549161095c83611f9f565b909155505060405188908a907f5d4760119c8e8650149aac097d38c70515dfce015031561ad115606533e479be905f90a3505050505050505050565b600160208190525f9182526040909120805491810180546109b890611e60565b80601f01602080910402602001604051908101604052809291908181526020018280546109e490611e60565b8015610a2f5780601f10610a0657610100808354040283529160200191610a2f565b820191905f5260205f20905b815481529060010190602001808311610a1257829003601f168201915b505050505090806002018054610a4490611e60565b80601f0160208091040260200160405190810160405280929190818152602001828054610a7090611e60565b8015610abb5780601f10610a9257610100808354040283529160200191610abb565b820191905f5260205f20905b815481529060010190602001808311610a9e57829003601f168201915b50505060038401546004850154600586015460078701546008909701549596929591945060ff90811693501688565b335f9081526005602052604090205460ff16610b185760405162461bcd60e51b815260040161044790611d6a565b5f8181526001602052604081206005015460ff166003811115610b3d57610b3d611964565b14610b7a5760405162461bcd60e51b815260206004820152600d60248201526c496e76616c696420737461746560981b6044820152606401610447565b5f818152600160208190526040808320600501805460ff19169092179091555182917f159eee87222a0489c529f2153c26ad65d718f2cc33ebaa8d399d1dd5b39facaa91a250565b610bca6115c3565b610bd35f6115ef565b565b600260209081525f928352604080842090915290825290208054600182018054919291610c0190611e60565b80601f0160208091040260200160405190810160405280929190818152602001828054610c2d90611e60565b8015610c785780601f10610c4f57610100808354040283529160200191610c78565b820191905f5260205f20905b815481529060010190602001808311610c5b57829003601f168201915b505050505090806002018054610c8d90611e60565b80601f0160208091040260200160405190810160405280929190818152602001828054610cb990611e60565b8015610d045780601f10610cdb57610100808354040283529160200191610d04565b820191905f5260205f20905b815481529060010190602001808311610ce757829003601f168201915b5050505050908060030154905084565b600a546040516308a3cff560e11b81526001600160a01b03909116906311479fea90610d4a908790879087908790600401611fc3565b602060405180830381865afa158015610d65573d5f5f3e3d5ffd5b505050506040513d601f19601f82011682018060405250810190610d899190611e45565b610dce5760405162461bcd60e51b815260206004820152601660248201527524b73b30b634b210343ab6b0b734ba3c90383937b7b360511b6044820152606401610447565b335f81815260066020526040808220805460ff19166001179055517f27f4fbd341e117ea7858d9523598450be843076f15d1e8f9cf0ca969cef8b17e9190a250505050565b335f9081526005602052604090205460ff16610e415760405162461bcd60e51b815260040161044790611d6a565b60025f8281526001602052604090206005015460ff166003811115610e6857610e68611964565b14610eb55760405162461bcd60e51b815260206004820152601c60248201527f456c656374696f6e206d75737420626520656e646564206669727374000000006044820152606401610447565b5f818152600160209081526040808320600501805460ff1916905560039091528120610ee09161163e565b5f5b5f82815260016020526040902060070154811015610f1e575f828152600260209081526040808320848452909152812060030155600101610ee2565b5060405181907f2a0e7ca52e830898fc8ddd8f2fc8695795a5fdf74064958562691b5bea4485f5905f90a250565b335f9081526005602052604090205460ff16610f7a5760405162461bcd60e51b815260040161044790611d6a565b60015f8281526001602052604090206005015460ff166003811115610fa157610fa1611964565b14610fdb5760405162461bcd60e51b815260206004820152600a6024820152694e6f742061637469766560b01b6044820152606401610447565b5f81815260016020526040808220600501805460ff191660021790555182917f562cd572b2ba3b666cd989fc4ca98419ec81e75f04528df9d9d76fdb7807ee7191a250565b61102861165c565b5f82815260016020818152604092839020835161012081019094528054845291820180549184019161105990611e60565b80601f016020809104026020016040519081016040528092919081815260200182805461108590611e60565b80156110d05780601f106110a7576101008083540402835291602001916110d0565b820191905f5260205f20905b8154815290600101906020018083116110b357829003601f168201915b505050505081526020016002820180546110e990611e60565b80601f016020809104026020016040519081016040528092919081815260200182805461111590611e60565b80156111605780601f1061113757610100808354040283529160200191611160565b820191905f5260205f20905b81548152906001019060200180831161114357829003601f168201915b5050509183525050600382810154602083015260048301546040830152600583015460609092019160ff169081111561119b5761119b611964565b60038111156111ac576111ac611964565b81526020016006820180548060200260200160405190810160405280929190818152602001828054801561120757602002820191905f5260205f20905b81546001600160a01b031681526001909101906020018083116111e9575b50505091835250506007820154602082015260089091015460ff16151560409091015292915050565b6003602052815f5260405f208181548110611249575f80fd5b905f5260205f2090600302015f9150915050805f01805461126990611e60565b80601f016020809104026020016040519081016040528092919081815260200182805461129590611e60565b80156112e05780601f106112b7576101008083540402835291602001916112e0565b820191905f5260205f20905b8154815290600101906020018083116112c357829003601f168201915b5050505050908060010154908060020154905083565b335f9081526005602052604090205460ff166113245760405162461bcd60e51b815260040161044790611d6a565b5f8381526001602052604081206005015460ff16600381111561134957611349611964565b1461138d5760405162461bcd60e51b8152602060048201526014602482015273456c656374696f6e206e6f742070656e64696e6760601b6044820152606401610447565b5f83815260016020818152604080842060070154815160808101835281815280840188815281840188905260608201879052898752600285528387208388529094529190942081518155915190928201906113e89082611ee4565b50604082015160028201906113fd9082611ee4565b50606091909101516003909101555f84815260016020526040812060070180549161142783611f9f565b919050555050505050565b335f9081526005602052604081205460ff166114605760405162461bcd60e51b815260040161044790611d6a565b83851061149f5760405162461bcd60e51b815260206004820152600d60248201526c496e76616c69642074696d657360981b6044820152606401610447565b600780549081905f6114b083611f9f565b90915550505f8181526001602081905260409091208281559081016114d58a82611ee4565b50600281016114e48982611ee4565b50600381018790556004810186905560058101805460ff19908116909155600782018690556008820180549091168515151790556006810180546001810182555f9182526020909120018054336001600160a01b031990911617905560405182907f52be7c4e77b4de76b7607d621492061fe13b58597e72dfb5e51ab8f6187ed14190611572908c90612013565b60405180910390a250979650505050505050565b61158e6115c3565b6001600160a01b0381166115b757604051631e4fbdf760e01b81525f6004820152602401610447565b6115c0816115ef565b50565b5f546001600160a01b03163314610bd35760405163118cdaa760e01b8152336004820152602401610447565b5f80546001600160a01b038381166001600160a01b0319831681178455604051919092169283917f8be0079c531659141344cd1fd0a4f28419497f9722a3daafe3b4186f6b6457e09190a35050565b5080545f8255600302905f5260205f20908101906115c091906116b3565b6040518061012001604052805f815260200160608152602001606081526020015f81526020015f81526020015f600381111561169a5761169a611964565b81526060602082018190525f6040830181905291015290565b808211156116dc575f6116c682826116e0565b505f6001820181905560028201556003016116b3565b5090565b5080546116ec90611e60565b5f825580601f106116fb575050565b601f0160209004905f5260205f20908101906115c091905b808211156116dc575f8155600101611713565b5f60208284031215611736575f5ffd5b81356001600160a01b038116811461174c575f5ffd5b9392505050565b5f5f60408385031215611764575f5ffd5b50508035926020909101359150565b5f60208284031215611783575f5ffd5b5035919050565b634e487b7160e01b5f52604160045260245ffd5b604051601f8201601f1916810167ffffffffffffffff811182821017156117c7576117c761178a565b604052919050565b5f82601f8301126117de575f5ffd5b5f6117e9604061179e565b90508060408401858111156117fc575f5ffd5b845b818110156118165780358352602092830192016117fe565b509195945050505050565b5f82601f830112611830575f5ffd5b604061183b8161179e565b80608085018681111561184c575f5ffd5b855b8181101561186f5761186088826117cf565b8452602090930192840161184e565b50909695505050505050565b5f5f5f5f5f5f5f6101e0888a031215611892575f5ffd5b8735965060208801359550604088013594506118b18960608a016117cf565b93506118c08960a08a01611821565b92506118d0896101208a016117cf565b91505f8961017f8a01126118e2575f5ffd5b505f806118ef608061179e565b90508091506101e08a018b811115611905575f5ffd5b6101608b015b8181101561192357803584526020938401930161190b565b5050809250505092959891949750929550565b5f81518084528060208401602086015e5f602082860101526020601f19601f83011685010191505092915050565b634e487b7160e01b5f52602160045260245ffd5b6004811061199457634e487b7160e01b5f52602160045260245ffd5b9052565b88815261010060208201525f6119b261010083018a611936565b82810360408401526119c4818a611936565b9150508660608301528560808301526119e060a0830186611978565b8360c083015282151560e08301529998505050505050505050565b848152608060208201525f611a136080830186611936565b8281036040840152611a258186611936565b91505082606083015295945050505050565b5f5f5f5f6101608587031215611a4b575f5ffd5b611a5586866117cf565b9350611a648660408701611821565b9250611a738660c087016117cf565b91505f8661011f870112611a85575f5ffd5b505f80611a92606061179e565b9050809150610160870188811115611aa8575f5ffd5b61010088015b81811015611ac6578035845260209384019301611aae565b5050809250505092959194509250565b5f8151808452602084019350602083015f5b82811015611b0f5781516001600160a01b0316865260209586019590910190600101611ae8565b5093949350505050565b60208152815160208201525f60208301516101206040840152611b40610140840182611936565b90506040840151601f19848303016060850152611b5d8282611936565b91505060608401516080840152608084015160a084015260a0840151611b8660c0850182611978565b5060c0840151838203601f190160e0850152611ba28282611ad6565b91505060e0840151610100840152610100840151611bc561012085018215159052565b509392505050565b606081525f611bdf6060830186611936565b60208301949094525060400152919050565b5f82601f830112611c00575f5ffd5b813567ffffffffffffffff811115611c1a57611c1a61178a565b611c2d601f8201601f191660200161179e565b818152846020838601011115611c41575f5ffd5b816020850160208301375f918101602001919091529392505050565b5f5f5f60608486031215611c6f575f5ffd5b83359250602084013567ffffffffffffffff811115611c8c575f5ffd5b611c9886828701611bf1565b925050604084013567ffffffffffffffff811115611cb4575f5ffd5b611cc086828701611bf1565b9150509250925092565b80151581146115c0575f5ffd5b5f5f5f5f5f5f60c08789031215611cec575f5ffd5b863567ffffffffffffffff811115611d02575f5ffd5b611d0e89828a01611bf1565b965050602087013567ffffffffffffffff811115611d2a575f5ffd5b611d3689828a01611bf1565b95505060408701359350606087013592506080870135915060a0870135611d5c81611cca565b809150509295509295509295565b60208082526010908201526f4e6f7420616e20617574686f7269747960801b604082015260600190565b805f5b6002811015611db6578151845260209384019390910190600101611d97565b50505050565b805f5b6002811015611db657611dd3848351611d94565b6040939093019260209190910190600101611dbf565b6101808101611df88287611d94565b611e056040830186611dbc565b611e1260c0830185611d94565b6101008201835f5b6004811015611e39578151835260209283019290910190600101611e1a565b50505095945050505050565b5f60208284031215611e55575f5ffd5b815161174c81611cca565b600181811c90821680611e7457607f821691505b602082108103611e9257634e487b7160e01b5f52602260045260245ffd5b50919050565b601f821115611edf57805f5260205f20601f840160051c81016020851015611ebd5750805b601f840160051c820191505b81811015611edc575f8155600101611ec9565b50505b505050565b815167ffffffffffffffff811115611efe57611efe61178a565b611f1281611f0c8454611e60565b84611e98565b6020601f821160018114611f44575f8315611f2d5750848201515b5f19600385901b1c1916600184901b178455611edc565b5f84815260208120601f198516915b82811015611f735787850151825560209485019460019092019101611f53565b5084821015611f9057868401515f19600387901b60f8161c191681555b50505050600190811b01905550565b5f60018201611fbc57634e487b7160e01b5f52601160045260245ffd5b5060010190565b6101608101611fd28287611d94565b611fdf6040830186611dbc565b611fec60c0830185611d94565b6101008201835f5b6003811015611e39578151835260209283019290910190600101611ff4565b602081525f61174c602083018461193656fea2646970667358221220398f8158c2b06a3ed26073242aaa65f263a0bf00f380d19f32eec0e1df522b5d64736f6c634300081c0033",
  "linkReferences": {},
  "deployedLinkReferences": {},
  "immutableReferences": {},
  "inputSourceName": "project/contracts/EVoting.sol",
  "buildInfoId": "solc-0_8_28-c0c7cf7ed5c49302d3f7bf7b72beecb0a8e48a4d"
}